:04000000B4EF08F061
:10100000005072657373203120666F7220526564E0
:10101000204C45442C203220666F722059656C6C40
:101020006F77204C454420616E64203320666F72D8
:1010300020477265656E204C4544200D0A005765B7
:101040006C636F6D6520746F2073747564656E7466
:10105000636F6D70616E696F6E2E636F2E7A610DB6
:101060000A000000ADEC08F03E0E026E100E036E9A
:1010700073EC08F0000E066E000E056E06BE06D07C
:1010800006500EE10B0E055CD8B00AD0820E046E3D
:10109000DE0EE82EFED7042EFCD7054A062AEED730
:1010A000010E026E100E036E73EC08F0A5EC08F052
:1010B000076E0ED08A808A9209D08A908A8206D0E2
:1010C0008A908A928A84F2D78A90F5D78A94EED74A
:1010D0000750310AD8B4EED7030AD8B4EED7010AC4
:1010E000D8B4EED7F1D70AD002C0F6FF03C0F7FF9D
:1010F0000800F550BAEC08F0024A032A02C0F6FFD5
:1011000003C0F7FF0800F5500009D8B41200ECD76F
:10111000000E896E9268000E8A6EF80E936E000EB5
:101120007C6E000E8B6E94681F0E7E6E0A0E7F6EB4
:10113000F18E1200480EB86E900EAB6E260EAC6E9D
:10114000CF0EAF6E000EB06E12009EAAFED7ABA2FD
:1011500002D0AB98AB88AE501200C0EC08F088EC1F
:1011600008F09AEC08F01200076A000EF86E000111
:1011700032EF08F0016E9EA8FED701C0ADFF12004D
:0A118000620ED36E000E9B6E12008B
:020000040020DA
:08000000FFFFFFFFFFFFFFFF00
:020000040030CA
:0E000000FFC81F1EFF0D81FF0FC00FE00F4055
:00000001FF
