:100000003FEF47F00000000000EF00F000000000AC
:0A0010000000000000000000F3D71C
:0E001C00ACB202D00000FCD795C8ADFF1200B8
:0C002A0072B201D0FDD795C873FF120020
:1000360095C8C9FFC7B002D00000FCD7C9CF00F0F1
:020046001200A6
:1000480095C86FFF6DB002D00000FCD76FCF00F0ED
:02005800120094
:10005A00F250026EF29E0500FF6A0150FE6E0050D9
:08006A00FD6E02BEF28E1200D1
:100072008FC8C9FFC7B002D00000FCD7C9CF00F0BB
:0200820012006A
:100084008FC86FFF6DB002D00000FCD76FCF00F0B7
:02009400120058
:1000960022C191F823C192F824C193F825C194F89E
:1000A6009E96C5869EB620D00101225123112411A9
:1000B600251119E0080191519211931194110CE147
:1000C600EBC5E1FFECC5E2FF030EE66EE9C500F005
:1000D600EAC501F0BFDF08D0010E0801915F000EEE
:1000E600925B935B945BDED70801C9CF90F88F5182
:1000F600000A02E1C58A01D0C59A9E96C58822C12A
:1001060091F823C192F824C193F825C194F89EB6BC
:1001160020D00101225123112411251119E00801D3
:1001260091519211931194110CE1EBC5E1FFECC5CD
:10013600E2FF030EE66EE9C500F0EAC501F08ADFCC
:1001460008D0010E0801915F000E925B935B945BF1
:08015600DED790C800F0120092
:10015E009E968FC8C9FF22C190F823C191F824C181
:10016E0092F825C193F8C7A422D001012251231180
:10017E00241125111BE00801905191119211931138
:10018E000EE1EBC5E1FFECC5E2FF040EE66EE9C53C
:10019E0000F0EAC501F05ADF010E006E3BD0010EF1
:1001AE000801905F000E915B925B935BDCD722C1DE
:1001BE0090F823C191F824C192F825C193F89EB608
:1001CE0022D0010122512311241125111BE0080117
:1001DE0090519111921193110EE1EBC5E1FFECC517
:1001EE00E2FF040EE66EE9C500F0EAC501F02EDF6F
:1001FE00010E006E0FD0010E0801905F000E915B94
:10020E00925B935BDCD7C5BC02D0006A03D0C58479
:06021E00020E006E12004A
:1002240036C191F837C192F838C193F839C194F8BE
:10023400A49E6B86A4BE20D001013651371138111B
:10024400391119E0080191519211931194110CE1A3
:10025400F7C5E1FFF8C5E2FF030EE66EF5C500F051
:10026400F6C501F0F8DE08D0010E0801915F000E1A
:10027400925B935B945BDED708016FCF90F88F514C
:10028400000A02E16B8A01D06B9AA49E6B8836C186
:1002940091F837C192F838C193F839C194F8A4BEE3
:1002A40020D00101365137113811391119E00801F4
:1002B40091519211931194110CE1F7C5E1FFF8C526
:1002C400E2FF030EE66EF5C500F0F6C501F0C3DEED
:1002D40008D0010E0801915F000E925B935B945B62
:0802E400DED790C800F0120003
:1002EC00A49E8FC86FFF36C190F837C191F838C102
:1002FC0092F839C193F86DA422D00101365137110F
:10030C00381139111BE00801905191119211931180
:10031C000EE1F7C5E1FFF8C5E2FF040EE66EF5C588
:10032C0000F0F6C501F093DE010E006E3BD0010E1D
:10033C000801905F000E915B925B935BDCD736C13A
:10034C0090F837C191F838C192F839C193F8A4BE2E
:10035C0022D0010136513711381139111BE0080137
:10036C0090519111921193110EE1F7C5E1FFF8C56F
:10037C00E2FF040EE66EF5C500F0F6C501F067DE8F
:10038C00010E006E0FD0010E0801905F000E915B04
:10039C00925B935BDCD76BBC02D0006A03D06B849E
:0603AC00020E006E1200BB
:1003B2008284A3C5E1FFA4C5E2FFFF0EE66EA1C5DC
:0A03C20000F0A2C501F048DE1200B1
:1003CC00A3C5E1FFA4C5E2FF4C0EE66EA1C500F08B
:1003DC00A2C501F03CDEA3C5E1FFA4C5E2FFE66ABD
:1003EC00A1C500F0A2C501F032DEA3C5E1FFA4C592
:1003FC00E2FFE66AA1C500F0A2C501F028DEA3C5A4
:10040C00E1FFA4C5E2FFE66AA1C500F0A2C501F0B8
:10041C001EDEA3C5E1FFA4C5E2FFE66AA1C500F09C
:10042C00A2C501F014DEA3C5E1FFA4C5E2FFFF0ED7
:10043C00E66EA1C500F0A2C501F009DE0801876BCC
:10044C00886BA3C5E1FFA4C5E2FFFF0EE66EA1C554
:10045C0000F0A2C501F0FBDD00C086F80801874B57
:10046C00882B800E0014016E0150000A07E0000E6C
:10047C00885D02E1640E875D01E2E3D786AF04D0AC
:10048C0092DF86C800F012D0A3C5E1FFA4C5E2FF3D
:10049C00FF0EE66EA1C500F0A2C501F0D8DD00C0CC
:0E04AC0086F80050000AF0E07EDF006A1200C1
:1004BA00400E08018625006EA3C5E1FFA4C5E2FF30
:1004CA0000C0E6FFA1C500F0A2C501F0C1DDA3C5C9
:1004DA00E1FFA4C5E2FF8AC8E6FFA1C500F0A2C5F4
:1004EA0001F0B6DDA3C5E1FFA4C5E2FF89C8E6FFB6
:1004FA00A1C500F0A2C501F0ABDDA3C5E1FFA4C50B
:10050A00E2FF88C8E6FFA1C500F0A2C501F0A0DDA0
:10051A00A3C5E1FFA4C5E2FF87C8E6FFA1C500F0B5
:10052A00A2C501F095DDA3C5E1FFA4C5E2FF8BC812
:10053A00E6FFA1C500F0A2C501F08ADD08018D6BB6
:10054A008E6BA3C5E1FFA4C5E2FFFF0EE66EA1C54F
:10055A0000F0A2C501F07CDD00C08CF808018D4BCB
:10056A008E2B800E0014016E0150000A07E0000E67
:10057A008E5D02E1640E8D5D01E2E3D78CC800F066
:02058A0012005D
:04058C008294120043
:100590001DDF0050000A03E0FF0E006E01D0006A6C
:0205A000120047
:1005A200F4DF000E000A03E1040E0101141909E14F
:1005B20078C880F879C881F87AC882F87BC883F84D
:1005C20014D0090E006E78C880F879C881F87AC80C
:1005D20082F87BC883F8005008E0080180378091D8
:1005E200813782378337FF0FF7D70801110E866FE5
:1005F20080C887F881C888F882C889F883C88AF8D1
:10060200FF0E8B6F59DF005204E0D2DE010E006E46
:100612004BD0A3C5E1FFA4C5E2FFFF0EE66EA1C564
:1006220000F0A2C501F018DD0050FE0A01E0F1D78A
:1006320008017E6B7F6B020E7F5D02E1000E7E5D24
:100642001BE27E517C25846F7F517D21856FA3C57E
:10065200E1FFA4C5E2FFFF0EE66EA1C500F0A2C550
:1006620001F0FADC84C8E1FF85C8E2FF00C0E6FFC2
:1006720008017E4B7F2BDFD7A3C5E1FFA4C5E2FFB4
:10068200FF0EE66EA1C500F0A2C501F0E5DCA3C530
:10069200E1FFA4C5E2FFFF0EE66EA1C500F0A2C510
:0A06A20001F0DADC85DE006A1200C8
:1006AC0072C878F873C879F874C87AF875C87BF88A
:1006BC0076C87CF877C87DF86EDF0050000A03E03E
:0A06CC00FF0E006E01D0006A12005C
:1006D60005019351000A04E09351020A01E002D099
:1006E600006A0DD052DF000E001806E0FF0E05016D
:1006F6009A6FFF0E006E03D00501936B006A12001D
:1007060005019351030A1FE1E3DF0050000A05E0EB
:10071600FF0E9A6FFF0E006E5CD00201DD510801DC
:1007260071190EE10201DC510801701909E102019B
:10073600DB5108016F1904E10201DA5108016E1953
:1007460002E1006A46D005019351010A05E1FF0E58
:100756009A6FFF0E006E3DD0080171510201DD193E
:100766000EE1080170510201DC1909E108016F511F
:100776000201DB1904E108016E510201DA1928E0D1
:100786006EC872F86FC873F870C874F871C875F8D7
:10079600DE0E0801766F020E776F85DF000E0018F9
:1007A6000FE0FF0E0201DA6FFF0EDB6FFF0EDC6F4C
:1007B600FF0EDD6FFF0E05019A6FFF0E006E09D06A
:1007C6006EC8DAF26FC8DBF270C8DCF271C8DDF20F
:0407D600006A1200A3
:1007DA0005016B5108016D5D0EE105016A510801C1
:1007EA006C5D09E10501695108016B5D04E10501D0
:1007FA00685108016A5D15E305014D5108016D5DF7
:10080A000EE105014C5108016C5D09E105014B51EE
:10081A0008016B5D04E105014A5108016A5D01E2C4
:10082A000CD0F40E05019A6FFF0E006EFF0E016EDA
:10083A00FF0E026E0F0E036E64D0DBC500F06AC8AD
:10084A006EF86BC86FF86CC870F86DC871F8005014
:10085A0008E00801713370336F336E33719FFF0FF5
:10086A00F7D70501645108016E2705016551080192
:10087A006F230501665108017023050167510801BC
:10088A0071233CDF0050000A09E0FF0E006EFF0EE4
:10089A00016EFF0E026E0F0E036E33D0D7C500F045
:1008AA00D8C501F0D9C502F0DAC503F0010E005E21
:1008BA00000E015A025A035A005008016A15046EC2
:1008CA0001506B15056E02506C15066E03506D15BE
:1008DA00076E04C000F005C001F000360090013632
:1008EA00003600900136DE0E0024E96E020E012069
:1008FA00EA6EEECF00F0EECF01F0EECF02F0EECFCF
:04090A0003F01200E4
:10090E0008016A517A0806E3610E6A5D03E3010E7F
:08091E00006E01D0006A120016
:10092600026A110E025C17E2F80E0224F66E980EA9
:10093600F76E000EF722000EF86E000EF822090080
:10094600F5CF01F0015008016A1903E1010E006EAE
:0A09560003D0022AE6D7006A12005F
:10096000A3C5E1FFA4C5E2FFFF0EE66EA1C500F03E
:10097000A2C501F02DEC00F00050FE0A01E0F0D716
:02098000120063
:100982006AC805F06BC806F06CC807F06DC808F0BD
:1009920005016851055E6951065A6A51075A6B5141
:1009A200085AE8C504F005C000F006C001F007C00F
:1009B20002F008C003F0045007E000360090013650
:1009C20002360336FF0FF8D76E5100266F5101220F
:0A09D200705102227151032212003D
:1009DC0008016A51390806E3300E6A5D03E3010E23
:0809EC00006E01D0006A120048
:1009F40008016A515A0806E3410E6A5D03E3010ED9
:080A0400006E01D0006A12002F
:100A0C0055C804F056C805F053C802F054C803F09A
:100A1C0057C800F058C801F0010E0801575F000ECE
:100A2C00585B005001100FE004C0E9FF05C0EAFF5D
:100A3C0002C0E1FF03C0E2FFEECFE6FF024A032A49
:100A4C00044A052AE5D753C800F054C801F0120037
:100A5C0053C86AF8BDDF005211E153C86AF8C4DF0D
:100A6C0000520CE153C86AF84CDF005207E153C83E
:100A7C006AF853DF005202E1006A02D0010E006EE8
:020A8C00120056
:100A8E0068DF0801556B566B020E565D02E1000ED3
:100A9E00555D1CE255515325576F56515421586FD1
:100AAE00A3C5E1FFA4C5E2FFFF0EE66EA1C500F0EF
:100ABE00A2C501F02DEC00F057C8E1FF58C8E2FFC7
:100ACE0000C0E6FF0801554B562BDED7A3C5E1FF4C
:100ADE00A4C5E2FFFF0EE66EA1C500F0A2C501F0AF
:100AEE002DEC00F0A3C5E1FFA4C5E2FFFF0EE66EFC
:0E0AFE00A1C500F0A2C501F02DEC00F0120021
:100B0C003FDD000E000A03E1040E0101141909E196
:100B1C0053C857F854C858F855C859F856C85AF815
:100B2C0014D0090E006E53C857F854C858F855C85D
:100B3C0059F856C85AF8005008E008015737579131
:100B4C00583759375A37FF0FF7D70801120E866FEF
:100B5C0057C887F858C888F859C889F85AC88AF805
:100B6C00FF0E8B6FA4DC005204E01DDC010E006E46
:060B7C0001D0006A120026
:100B8200DAC265F8DBC266F8DCC267F8DDC268F873
:100B920053C85DF854C85EF855C85FF856C860F887
:100BA20005016B510801565D0EE105016A5108010C
:100BB200555D09E1050169510801545D04E1050132
:100BC20068510801535D15E305014D510801605D4F
:100BD2000EE105014C5108015F5D09E105014B5130
:100BE20008015E5D04E105014A5108015D5D01E213
:100BF20006D0F40E05019A6FFF0E006ECED00801EA
:100C0200696B83C500F057C801F058C802F059C893
:100C120003F05AC804F0005007E0043203320232F3
:100C22000132049EFF0FF8D70450000809E1035077
:100C3200000806E10250000803E108010150695D65
:100C420055E25DC86AF85EC86BF85FC86CF860C8A8
:100C52006DF8C2DD00C05DF801C05EF802C05FF849
:100C620003C060F803500F0A08E10250FF0A05E1D1
:100C72000150FF0A02E10050FF0A06E1F10E0501F0
:100C82009A6FFF0E006E89D005016B510801605DFD
:100C92000EE105016A5108015F5D09E10501695133
:100CA20008015E5D04E10501685108015D5D15E31F
:100CB20005014D510801605D0EE105014C5108012D
:100CC2005F5D09E105014B5108015E5D04E105012B
:100CD2004A5108015D5D01E206D0F40E05019A6FEA
:100CE200FF0E006E5AD00801692B8BD708019BC5F5
:100CF20000F09CC501F09DC502F09EC503F0010EF7
:100D0200005E000E015A025A035A00505715616FD5
:100D120001505815626F02505915636F03505A15EE
:100D2200646F5DC86AF85EC86BF85FC86CF860C82B
:100D32006DF826DEA0C508F061C804F062C805F0AF
:100D420063C806F064C807F0085007E007320632AD
:100D520005320432079EFF0FF8D75BC8E1FF5CC87B
:100D6200E2FF04500024E66E05500120E66E0650B4
:100D72000220E66E07500320E66E65C86EF866C86C
:100D82006FF867C870F868C871F8BCDC0050000AD8
:0C0D920003E0FF0E006E01D0006A1200AA
:100D9E00080153515A0804E3410E535DD8B0538BEA
:060DAE0053C800F0120022
:100DB4001D0E0C6E910E0D6E0D2EFED70C2EFCD753
:020DC40012001B
:0E0DC60040C853F841C854F85FDE006A1200BE
:100DD40040C853F841C854F842C855F843C856F8B7
:100DE40093DE0050000A03E0FF0E006E01D0006A9B
:020DF4001200EB
:0A0DF60000000000000000001200E1
:100E00000B6A0A6A096A00500402F4CF09F0F3CFB2
:100E100008F001500502F4CF0BF0F3CF0AF00050B8
:100E20000502F3500926F4500A22E86A0B22015009
:100E30000402F3500926F4500A22E86A0B2208C083
:100E400000F009C001F00AC002F00BC003F012006C
:100E5000010E08014025E96E000E4121EA6E42C8EC
:100E6000E1FF43C8E2FFEECFE6FF010E4225E16E4F
:100E7000000E4321E26E030E4025E96E000E412173
:100E8000EA6EEECFE6FF020E4225E16E000E432130
:100E9000E26E050E4025E96E000E4121EA6EEECFAE
:100EA000E6FF030E4225E16E000E4321E26E070EBF
:100EB0004025E96E000E4121EA6EEECFE6FF040EFA
:100EC0004225E16E000E4321E26E090E4025E96ED7
:100ED000000E4121EA6EEECFE6FF050E4225E16EDF
:100EE000000E4321E26E0E0E4025E96E000E4121F8
:100EF000EA6EEECFE6FF060E4225E16E000E4321BC
:100F0000E26E100E4025E96E000E4121EA6EEECF32
:100F1000E6FF070E4225E16E000E4321E26E120E3F
:100F20004025E96E000E4121EA6EEECFE6FF080E85
:100F30004225E16E000E4321E26E140E4025E96E5B
:100F4000000E4121EA6EEECFE6FF090E4225E16E6A
:100F5000000E4321E26E160E4025E96E000E41217F
:100F6000EA6EEECFE6FF0A0E4225E16E000E432147
:100F7000E26E180E4025E96E000E4121EA6EEECFBA
:100F8000E6FF0B0E4225E16E000E4321E26E1C0EC1
:100F90004025E96E000E4121EA6EEECFE6FF0C0E11
:100FA0004225E16E000E4321E26E1E0E4025E96EE1
:0E0FB000000E4121EA6EEECFE6FF006A12004D
:100FBE00C6EC02F0000E000A03E1040E0101141942
:100FCE0009E140C848F841C849F842C84AF843C840
:100FDE004BF814D0090E006E40C848F841C849F8C5
:100FEE0042C84AF843C84BF8005008E00801483799
:100FFE00489149374A374B37FF0FF7D70801180E7C
:10100E00866F48C887F849C888F84AC889F84BC817
:10101E008AF8FF0E8B6F5DEC02F0005205E0D9EC02
:10102E0001F0010E006E95D0A3C5E1FFA4C5E2FF4D
:10103E00FF0EE66EA1C500F0A2C501F02DEC00F08A
:10104E00A3C5E1FFA4C5E2FFFF0EE66EA1C500F049
:10105E00A2C501F02DEC00F0A3C5E1FFA4C5E2FF8F
:10106E00FE0EE66EA1C500F0A2C501F02DEC00F05B
:10107E000801466B476B4751010802E14651FF08D4
:10108E0016E346514425E96E47514521EA6EA3C544
:10109E00E1FFA4C5E2FFEECFE6FFA1C500F0A2C5B9
:1010AE0001F02DEC00F00801464B472BE4D7A3C509
:1010BE00E1FFA4C5E2FFFF0EE66EA1C500F0A2C5DA
:1010CE0001F02DEC00F0A3C5E1FFA4C5E2FFFF0E79
:1010DE00E66EA1C500F0A2C501F02DEC00F0A3C58F
:1010EE00E1FFA4C5E2FFFF0EE66EA1C500F0A2C5AA
:1010FE0001F02DEC00F000C046F8000E0801476F1D
:10110E001F0E4615016E47C802F0000E021601C0F2
:10111E0046F802C047F8000E021802E1050E01184B
:10112E0005E0D9EC01F0020E006E13D0A3C5E1FF6D
:10113E00A4C5E2FFFF0EE66EA1C500F0A2C501F048
:10114E002DEC00F00050FF0A01E0F0D7D9EC01F0D1
:04115E00006A120011
:10116200460E0801536F080E546F40C855F841C827
:1011720056F80B0E576F000E586F47DC006B0B0EC4
:10118200005D3EE2456B460EE96E080EEA6E0051C6
:10119200E926D8B0EA2AEECF53F85FDC0050010A04
:1011A20003E1010E0801456F0801460EE96E080EC3
:1011B200EA6E0051E926D8B0EA2AEE50200A02E18E
:1011C200010E456F460EE96E080EEA6E0051E926E1
:1011D200D8B0EA2AEE502E0A02E1010E456F4551BF
:1011E200000A0BE142C8E1FF43C8E2FFE66AC40E0F
:1011F20005019A6FFF0E006EB3D00801002BBFD716
:10120200446B006B080E005D42E2460EE96E080E6A
:10121200EA6E0051E926D8B0EA2AEE50200A33E0FD
:101222000C0E4025E96E000E4121EA6EEECF01F070
:1012320001A618D044514225516F000E4321526F2E
:10124200460EE96E080EEA6E0051E926D8B0EA2A87
:10125200EECF53F8A3DD51C8E1FF52C8E2FF00C050
:10126200E6FF10D044514225E16E000E4321E26EAA
:10127200460EE96E080EEA6E0051E926D8B0EA2A57
:10128200EECFE6FF01D003D0442B002BBBD74E514B
:10129200200A09E144514225E16E000E4321E26E2B
:1012A200E66A006A5DD044514225E16E000E432198
:1012B200E26E2E0EE66E442B080E006F0B0E005DE2
:1012C20046E2460EE96E080EEA6E0051E926D8B0F3
:1012D200EA2AEECF53F82EEC05F00050000A01E1A5
:1012E20036D00C0E08014025E96E000E4121EA6E4F
:1012F200EECF01F001A818D044514225516F000EE3
:101302004321526F460EE96E080EEA6E0051E9263D
:10131200D8B0EA2AEECF53F841DD51C8E1FF52C8F6
:10132200E2FF00C0E6FF10D044514225E16E000EFC
:101332004321E26E460EE96E080EEA6E0051E9267E
:10134200D8B0EA2AEECFE6FF442B002BB7D708012C
:1013520044514225E16E000E4321E26EE66A006AC4
:02136200120077
:10136400056A046A0B0E055C22E2010E0414016E88
:10137400070E006E01C003F0005004E00336039032
:10138400FF0FFBD7FE0E0414026E02C000F0003201
:10139400009E00500310046E055008014025D96ECC
:1013A400000E4121DA6EDE500426052ADBD704C084
:0413B40000F0120033
:1013B80040C853F841C854F842C855F843C856F8CD
:1013C80044C857F845C858F846C859F847C85AF89D
:1013D80048C85BF849C85CF8C1EC05F00050000A41
:1013E80003E0FF0E006E15D048C8E9FF49C8EAFFC0
:1013F800EECF6EF8EECF6FF8EECF70F8EECF71F853
:1014080083EC03F00050000A03E0FF0E006E01D0E9
:04141800006A120054
:0C141C00420E0D6E0D2EFED700001200D7
:101428000701FDBF02D0839E01D0838EFDBD02D08F
:10143800839C01D0838CFDBB02D0839A01D0838A20
:10144800FDB902D0839801D083880501ABB102D0E1
:10145800838401D083948386CADC83960701FDB711
:1014680002D0839E01D0838EFDB502D0839C01D02B
:10147800838CFDB302D0839A01D0838AFDB102D058
:10148800839801D083880501ABB102D0838401D051
:1014980083948386ACDC8396ABA102D087DC01D031
:0414A800B9DF120096
:1014AC0001C840F802C841F803C842F804C843F820
:1014BC0005C844F806C845F87CDD0050000A03E076
:0A14CC00FF0E006E01D0006A12004E
:1014D600030E0701FD25E96E000EFE21EA6EEECF32
:1014E60009F0000E0A6E0B6E0C6E000E0A6E0B6E85
:1014F6000C6E0BC003F00AC002F009C001F0006ACE
:1015060000C009F001C00AF002C00BF003C00CF0E5
:10151600020EFD25D96E000EFE21DA6EDE50002485
:10152600056E000E0120066E000E0220076E000EEC
:101536000320086E05C009F006C00AF007C00BF0CC
:1015460008C00CF007C003F006C002F005C001F0A9
:10155600006A00C009F001C00AF002C00BF003C027
:101566000CF0010EFD25D96E000EFE21DA6EDE505E
:101576000024056E000E0120066E000E0220076E86
:10158600000E0320086E05C009F006C00AF007C069
:101596000BF008C00CF007C003F006C002F005C04F
:1015A60001F0006A00C009F001C00AF002C00BF0A9
:1015B60003C00CF0FDC7D9FFFEC7DAFFDE500026D8
:1015C600000E01220222032200C009F001C00AF027
:1015D60002C00BF003C00CF000C009F001C00AF015
:0A15E60002C00BF003C00CF012006D
:1015F00005019351030A0AE16BEC03F00050000A65
:1016000005E0FF0E9A6FFF0E006E50D09351010A55
:1016100005E1FF0E9A6FFF0E006E48D00201DD510A
:10162000080104190EE10201DC510801031909E166
:101630000201DB510801021904E10201DA5108013B
:10164000011905E1020E0501936F006A2FD001C850
:1016500040F802C841F803C842F804C843F8EAEC6D
:1016600006F00050000A06E0FF0E05019A6FFF0E1B
:10167000006E1CD0DE0E0801406F020E416FE3ECDD
:1016800006F00050000A06E0FF0E05019A6FFF0EFB
:10169000006E0CD00501010E936F01C8DAF202C88A
:0E16A000DBF203C8DCF204C8DDF2006A1200BF
:1016AE0003C840F804C841F805C842F806C843F814
:1016BE0007C844F808C845F809C846F80AC847F8E4
:1016CE003C0E0801486F080E496F6FDE0050000A8D
:1016DE0003E0FF0E006EA5D195C500F096C501F092
:1016EE0097C502F098C503F0010E005E000E015A78
:1016FE00025A035A005008010715046E01500815CE
:10170E00056E02500915066E03500A15076E050E7A
:10171E00026E04C000F005C001F0025005E0003674
:10172E0000900136FF0FFAD70801DE0E00243A6F43
:10173E00020E01203B6F010E0701FD6F080EFD5DCD
:10174E000EE2FD5108013A25E96E000E3B21EA6ECC
:10175E00EE507E0A01E103D00701FD2BEFD7070102
:10176E00FD51080A0AE13AC840F83BC841F801C8E1
:10177E0042F802C843F8EEDC54D11A0E0801536F3A
:10178E00080E546F3AC855F83BC856F8200E576FDE
:10179E00000E586F06EC05F003C840F804C841F877
:1017AE0005C842F806C843F8010E075F000E085B35
:1017BE00095B0A5B07C844F808C845F809C846F82B
:1017CE000AC847F83C0E486F080E496FEEDD005010
:1017DE00000A03E0FF0E006E24D195C500F096C5F9
:1017EE0001F097C502F098C503F0010E005E000EE1
:1017FE00015A025A035A005008010715046E01508F
:10180E000815056E02500915066E03500A15076E6F
:10181E00050E026E04C000F005C001F0025005E096
:10182E00003600900136FF0FFAD7DE0E0026020EAC
:10183E00012200C018F801C019F80B0E0024E96E41
:10184E00000E0120EA6E3F0EEE14016E01500F0ADB
:10185E000BE008011A0E406F080E416F01C842F8E6
:10186E0002C843F877DCDDD01A0E0801406F080E6F
:10187E00416F71DD00C0FFF7010E0701FE6F0B0E09
:10188E0008011825E96E000E1921EA6E3F0EEE14BE
:10189E00016E01500F0A06E0C00E05019A6FFF0E91
:1018AE00006EBFD00D0E08011825E96E000E19212D
:1018BE00EA6EEE500701FF1906E0C10E05019A6FA0
:1018CE00FF0E006EAED018C8E9FF19C8EAFFEECFC2
:1018DE0000F01F0E0014016E01500701FE1906E004
:1018EE00C20E05019A6FFF0E006E9BD018C840F80D
:1018FE0019C841F80B0E0801426F080E436F28EC11
:10190E0007F00701FD6BFE05006E016A000E015A1D
:10191E000D0E046E000E056E00EC07F0FD51002654
:10192E00000E0122005008010125E16E0150022136
:10193E00E26E0B0EE96E080EEA6E0701FD51E92606
:10194E00D8B0EA2AEECFE6FFFD2B0D0EFD5D0CE2C0
:10195E000B0EE96E080EEA6EFD51E926D8B0EA2AA2
:10196E00EE50000A01E0CFD718C8E9FF19C8EAFF08
:10197E00EECF01F001AC02D0006A53D0FE2B03C8AB
:10198E0040F804C841F805C842F806C843F8010EED
:10199E000801075F000E085B095B0A5B07C844F885
:1019AE0008C845F809C846F80AC847F83C0E486FFB
:1019BE00080E496FFADC0050000A03E0FF0E006EBD
:1019CE0030D095C500F096C501F097C502F098C5C8
:1019DE0003F0010E005E000E015A025A035A005027
:1019EE0008010715046E01500815056E0250091501
:1019FE00066E03500A15076E050E026E04C000F047
:101A0E0005C001F0025005E0003600900136FF0FD0
:101A1E00FAD70801DE0E0024186F020E0120196F8E
:041A2E002ED712009D
:101A320001C802F002C803F004C800F005C801F0B2
:101A4200010E0801045F000E055B0050011009E061
:101A520002C0E1FF03C0E2FF03C8E6FF024A032A15
:0C1A6200EBD701C800F002C801F0120030
:101A6E00026A080E025C17E2BD0E0224F66E990E93
:101A7E00F76E000EF722000EF86E000EF822090027
:101A8E00F5CF01F001500701FD1903E1010E006EC3
:0A1A9E0003D0022AE6D7006A120006
:0E1AA800FDC7E9FFFEC7EAFFEECF00F0120017
:101AB600010E0701FD25E96E000EFE21EA6EEECF4E
:101AC60003F0000E046E000E046E03C001F0006AFF
:101AD60000C003F001C004F0FDC7D9FFFEC7DAFF5E
:101AE600DE500026000E012200C003F001C004F003
:0A1AF60000C003F001C004F012006C
:101B00000701EB51390806E3300EEB5D03E3010EEC
:081B1000006E01D0006A120012
:101B18000501A5A567D0A5A314D0A5A103D02D0EB6
:101B2800036E02D02B0E036EEBC7E1FFECC7E2FF9A
:101B380003C0E6FF0701EB4BEC2B0501CE4BCF2B87
:101B48003AD0A5A10DD0EBC7E1FFECC7E2FF200E0C
:101B5800E66E0701EB4BEC2B0501CE4BCF2B2BD0C0
:101B6800C00EA515016EA651080B026E0250080A98
:101B780002E1800E01181FE1EBC7E1FFECC7E2FFAD
:101B8800300EE66E0701EB4BEC2B0501CE4BCF2B4D
:101B9800A5AB03D0580E046E02D0780E046EEBC7C6
:101BA800E1FFECC7E2FF04C0E6FF0701EB4BEC2BBB
:101BB8000501CE4BCF2BCC51CD1113E0EBC7E1FF84
:101BC800ECC7E2FF300EE66E0701EB4BEC2B05018C
:101BD800CE4BCF2B010ECC5F000ECD5BCC51CD117F
:101BE800EDE180D0CC51CD1115E0A5B713D0EBC7EE
:101BF800E1FFECC7E2FF200EE66E0701EB4BEC2B92
:101C08000501CE4BCF2B010ECC5F000ECD5BCC5126
:101C1800CD11EDE1A5A314D0A5A103D02D0E056E1D
:101C280002D02B0E056EEBC7E1FFECC7E2FF05C043
:101C3800E6FF0701EB4BEC2B0501CE4BCF2B0ED06B
:101C4800A5A10CD0EBC7E1FFECC7E2FF200EE66EC2
:101C58000701EB4BEC2B0501CE4BCF2BC00EA51586
:101C6800016EA651080B026E0250080A02E1400EEE
:101C780001180DE1EBC7E1FFECC7E2FF300EE66E9D
:101C88000701EB4BEC2B0501CE4BCF2B2BD0C00E15
:101C9800A515016EA651080B026E0250080A02E152
:101CA800800E01181FE1EBC7E1FFECC7E2FF300E21
:101CB800E66E0701EB4BEC2B0501CE4BCF2BA5AB0A
:101CC80003D0580E066E02D0780E066EEBC7E1FF01
:101CD800ECC7E2FF06C0E6FF0701EB4BEC2B050162
:101CE800CE4BCF2B800E006E800ED219005C02E125
:101CF800D151D05D0DE2EBC7E1FFECC7E2FF300E3A
:101D0800E66E0701EB4BEC2B0501CE4BCF2BEAD748
:0A1D1800EBC700F0ECC701F0120069
:101D22000134083609360450085E0550D8A0053C37
:101D3200095E003601360F0E0C6E01340836093684
:101D4200045000A006D0085E0550D8A0053C095EEC
:101D520005D008260550D8B0053C092600360136C4
:101D62000C2EEBD700B006D0045008260550D8B090
:081D7200053C092600001200E7
:101D7A000501AB91EBC7FDF714EC0AF0AB81120039
:101D8A00EBC753F82EEC05F0005207E1EBC7FDF75D
:101D9A0069DE005202E1006A02D0010E006E1200F2
:101DAA00EBC702F0ECC703F002C000F003C001F079
:101DBA00024A032A00C0E9FF01C0EAFFEE5201E02D
:101DCA00F3D70701EB51025C006EEC510358016E28
:0A1DDA00010E005E000E015A120017
:101DE4002DD00501A587010E0701EB27000EEC237A
:101DF400ED2361D00501A581010E0701EB27000E3B
:101E0400EC23ED2358D00501A583010E0701EB2730
:101E1400000EEC23ED234FD00501A687010E070128
:101E2400EB27000EEC23ED2346D00501A585010E1A
:101E34000701EB27000EEC23ED233DD0EBC7F6FFA3
:101E4400ECC7F7FFEDC7F8FF0900F5CF01F001502B
:101E54002D0AC7E0EBC7F6FFECC7F7FFEDC7F8FFA5
:101E64000900F5CF01F00150200AC4E0EBC7F6FFEA
:101E7400ECC7F7FFEDC7F8FF0900F5CF01F00150FB
:101E84002B0AC1E0EBC7F6FFECC7F7FFEDC7F8FF7D
:101E94000900F5CF01F00150230ABEE0EBC7F6FFBD
:101EA400ECC7F7FFEDC7F8FF0900F5CF01F00150CB
:101EB400300ABBE001D094D70501A5A301D0A591B8
:101EC400A5A701D0A595EBC700F0ECC701F0EDC7BD
:041ED40002F0120006
:101ED8000E0E0701EB25FD6F000EEC21FE6FE7DD0E
:101EE8000B0E046E00C002F001C003F0045005E0C0
:101EF80003320232039EFF0FFAD71F0E0214006E40
:101F080000C090F50E0EEB25FD6F000EEC21FE6F64
:101F1800CEDD050E046E00C002F001C003F00450CF
:101F280005E003320232039EFF0FFAD73F0E021478
:101F3800006E00C091F50E0EEB25FD6F000EEC2132
:101F4800FE6FB5DD00C002F0023602903F0E0214AB
:101F5800006E00C092F5100EEB25FD6F000EEC210F
:101F6800FE6FA5DD090E046E00C002F001C003F08B
:101F7800045005E003320232039EFF0FFAD77F0EAA
:101F88000214006E03C001F0000E011600C08CF5AB
:101F980001C08DF5BC0E0026070E012200C08CF58D
:101FA80001C08DF5100EEB25FD6F000EEC21FE6FC4
:101FB8007EDD050E046E00C002F001C003F004507F
:101FC80005E003320232039EFF0FFAD70F0E021408
:101FD800006E00C08EF5100EEB25FD6F000EEC2193
:101FE800FE6F65DD1F0E0014006E00C08FF5006ADD
:021FF8001200D5
:101FFA0005019351030A0AE16BEC03F00050000A51
:10200A0005E0FF0E9A6FFF0E006E32D09351010A5F
:10201A0005E1FE0E9A6FFF0E006E2AD0EBC701F89B
:10202A00ECC702F8EDC703F8EEC704F8DE0E0801A4
:10203A00056F020E066F56EC0AF0000E00180FE04C
:10204A00FF0E0201DA6FFF0EDB6FFF0EDC6FFF0E71
:10205A00DD6FFE0E05019A6FFF0E006E09D0EBC709
:10206A00DAF2ECC7DBF2EDC7DCF2EEC7DDF2006AAA
:02207A00120052
:10207C00010E066E000E076E086E096E056A800E64
:10208C00006E800E000A005C02E1200E055C23E26B
:10209C0006500701EB11016E0750EC11026E08504F
:1020AC00ED11036E0950EE11046E0450091808E18D
:1020BC000350081805E10250071802E101500618F8
:1020CC0003E105C000F009D0063606900736083645
:0C20DC000936052AD4D7FF0E006E120052
:1020E8000701EC6BED6B270EED5D02E1100EEC5D68
:1020F800D8B0B3D0000E000A02E1000EEB191AE1C5
:10210800C6EC02F0010E0801866F876B886B896B3D
:102118008A6BFF0E8B6F5DEC02F000C0EEF7D9EC16
:1021280001F00701EE51000A04E10101146B006A95
:1021380096D08FD0C6EC02F0370E0801866F876BF9
:10214800886B896B8A6BFF0E8B6F5DEC02F000C0A9
:10215800EEF7D9EC01F00701EE51010AD8A478D0C6
:10216800C6EC02F0290E0801866F000E876F000E7C
:10217800886F000E896F400E8A6FFF0E8B6F5DECC3
:1021880002F000C0EEF7D9EC01F00701EE51000AA9
:102198005EE1000E000A02E1020EEB1953E1C6EC03
:1021A80002F03A0E0801866F876B886B896B8A6B21
:1021B800FF0E8B6F5DEC02F000C0EEF7A3C5E1FFE8
:1021C800A4C5E2FFFF0EE66EA1C500F0A2C501F0AE
:1021D8002DEC00F000C0EFF7A3C5E1FFA4C5E2FFB6
:1021E800FF0EE66EA1C500F0A2C501F02DEC00F0CF
:1021F800A3C5E1FFA4C5E2FFFF0EE66EA1C500F08E
:10220800A2C501F02DEC00F0A3C5E1FFA4C5E2FFD3
:10221800FF0EE66EA1C500F0A2C501F02DEC00F09E
:10222800D9EC01F00701EE51000A0BE1EFAD04D043
:10223800040E0101146F03D00101030E146F006A2C
:102248000ED005D00101010E146F006A08D001D02C
:1022580004D00701EC4BED2B46D7010E006E12009F
:1022680008016E6B6F6B706B716B83EC03F0005041
:10227800000A03E0FF0E006E2BD1DE0E0701EC6FA3
:10228800020EED6FDE0EEE6F020EEF6FFE0EEC2506
:10229800FD6F010EED21FE6F0ADC0150AA0A02E172
:1022A800550E001806E0FC0E05019A6FFF0E006E31
:1022B8000FD1EEC7E9FFEFC7EAFFEECF01F00150FB
:1022C800E90A15E0EEC7E9FFEFC7EAFFEECF01F034
:1022D8000150EB0A0BE1020E0701EE25E96E000E34
:1022E800EF21EA6EEE50900A01E101D006D0FB0E14
:1022F80005019A6FFF0E006EEBD00701EB6B010E24
:10230800EB5DD8B0E4D00A0E006E000E016EEBC78C
:1023180004F0000E056E00EC07F04E0E0026050EC8
:10232800012200C0F0F701C0F1F7BE0EEC25FD6FE9
:10233800010EED21FE6F040E026EEBC700F0000ED9
:10234800016E025005E0003600900136FF0FFAD703
:102358000050FD270150FE2354EC0DF0F0C7E1FFBB
:10236800F1C7E2FF00C0E6FF0A0E006E000E016E24
:10237800EBC704F0000E056E00EC07F04E0E0026C9
:10238800050E0122010E0024F06F000E0120F16FEE
:10239800BE0EEC25FD6F010EED21FE6F040E026EE0
:1023A800EBC700F0000E016E025005E00036009009
:1023B8000136FF0FFAD70050FD270150FE23040E07
:1023C800FD27000EFE2354EC0DF0F0C7E1FFF1C726
:1023D800E2FF00C0E6FF0A0E006E000E016EEBC7BA
:1023E80004F0000E056E00EC07F04E0E0026050EF8
:1023F8000122020E0024F06F000E0120F16FBE0EC4
:10240800EC25FD6F010EED21FE6F040E026EEBC789
:1024180000F0000E016E025005E000360090013613
:10242800FF0FFAD70050FD270150FE23080EFD27A5
:10243800000EFE236BEC0AF0F0C7E1FFF1C7E2FFE4
:1024480000C0E6FF01C0E6FF02C0E6FF03C0E6FFEA
:102458000A0E006E000E016EEBC704F0000E056E4A
:1024680000EC07F04E0E0026050E0122060E002491
:10247800F06F000E0120F16FBE0EEC25FD6F010E0E
:10248800ED21FE6F040E026EEBC700F0000E016E28
:10249800025005E0003600900136FF0FFAD70050D1
:1024A800FD270150FE230C0EFD27000EFE236BECCA
:1024B8000AF0F0C7E1FFF1C7E2FF00C0E6FF01C084
:1024C800E6FF02C0E6FF03C0E6FFEB2B18D7006A61
:0224D8001200F0
:1024DA000450085E0550D8A0053C095E0650D8A0F5
:1024EA00063C0A5E0750D8A0073C0B5E0336070E6F
:1024FA000C6E0334083609360A360B36045003A02C
:10250A000ED0085E0550D8A0053C095E0650D8A03A
:10251A00063C0A5E0750D8A0073C0B5E0DD0082681
:10252A000550D8B0053C09260650D8B0063C0A2604
:10253A000750D8B0073C0B2603360C2EDAD70234E4
:10254A00083609360A360B36045003A00ED0085E48
:10255A000550D8A0053C095E0650D8A0063C0A5E84
:10256A000750D8A0073C0B5E0DD008260550D8B0FE
:10257A00053C09260650D8B0063C0A260750D8B0B2
:10258A00073C0B260236070E0C6E02340836093653
:10259A000A360B36045002A00ED0085E0550D8A0A9
:1025AA00053C095E0650D8A0063C0A5E0750D8A032
:1025BA00073C0B5E0DD008260550D8B0053C09260D
:1025CA000650D8B0063C0A260750D8B0073C0B265E
:1025DA0002360C2EDAD70134083609360A360B369B
:1025EA00045002A00ED0085E0550D8A0053C095E32
:1025FA000650D8A0063C0A5E0750D8A0073C0B5EDE
:10260A000DD008260550D8B0053C09260650D8B08A
:10261A00063C0A260750D8B0073C0B260136070E9F
:10262A000C6E0134083609360A360B36045001A0FE
:10263A000ED0085E0550D8A0053C095E0650D8A009
:10264A00063C0A5E0750D8A0073C0B5E0DD0082650
:10265A000550D8B0053C09260650D8B0063C0A26D3
:10266A000750D8B0073C0B2601360C2EDAD70034B7
:10267A00083609360A360B36045001A00ED0085E19
:10268A000550D8A0053C095E0650D8A0063C0A5E53
:10269A000750D8A0073C0B5E0DD008260550D8B0CD
:1026AA00053C09260650D8B0063C0A260750D8B081
:1026BA00073C0B260036070E0C6E00340836093626
:1026CA000A360B36045000A00ED0085E0550D8A07A
:1026DA00053C095E0650D8A0063C0A5E0750D8A001
:1026EA00073C0B5E0DD008260550D8B0053C0926DC
:1026FA000650D8B0063C0A260750D8B0073C0B262D
:10270A0000360C2EDAD700B00ED004500826055039
:10271A00D8B0053C09260650D8B0063C0A26075010
:08272A00D8B0073C0B26120099
:10273200EFC701F0F0C702F0010E0701EF5F000ED4
:10274200F05B000E021802E1000E01181FE0EBC759
:10275200E9FFECC7EAFFEDC7D9FFEEC7DAFFEE509B
:10276200DE180FE0EBC7E9FFECC7EAFFEDC7D9FFC0
:10277200EEC7DAFFDE50EE5C006E016A000E015A0F
:1027820007D0EB4BEC2BED4BEE2BD2D7006A016A54
:02279200120033
:10279400FF0E0701ED25F76F000EEE21F86F0B0E0B
:1027A400EB25FD6F000EEC21FE6F54EC0DF0F7C726
:1027B400E1FFF8C7E2FF00C0E6FF000EED25F76F6A
:1027C400010EEE21F86F1C0EEB25FD6F000EEC21BF
:1027D400FE6F6BEC0AF0F7C7E1FFF8C7E2FF00C039
:1027E400E6FF01C0E6FF02C0E6FF03C0E6FF040EF9
:1027F400ED25FB6F010EEE21FC6F140EEB25FD6F32
:10280400000EEC21FE6F5BEC0DF000C003F001C084
:1028140004F0000E056E066E04C0FAF703C0F9F763
:10282400F76BF86B1A0EEB25FD6F000EEC21FE6FB3
:102834005BEC0DF0000E026E036EF7510026F851AA
:102844000122F9510222FA510322FBC7E1FFFCC71E
:10285400E2FF00C0E6FF01C0E6FF02C0E6FF03C0DE
:10286400E6FF0B0EEB25E96E000EEC21EA6E3F0E3F
:10287400EE14016E01500F0A29E0EDC701F8EEC70E
:1028840002F80801036BFF0E046F000E056F19ECCC
:102894000DF0EDC701F8EEC702F8EFC703F8F0C773
:1028A40004F8F1C705F8F2C706F8F3C707F8F4C748
:1028B40008F8F5C709F8F6C70AF857EC0BF000500A
:1028C400000A03E0FF0E006E07D005D0EDC7E1FF5C
:0A28D400EEC7E2FFE66A006A120098
:1028DE000B1E0A1E091E081E082AD8B4092AD8B4CF
:0828EE000A2AD8B40B2A1200DB
:1028F600086A096A100E0C6E01340836093604504F
:10290600085E0550D8A0053C095ED8B007D0045033
:1029160008260550D8B0053C0926D8900036013661
:062926000C2EEAD712009E
:10292C000701EB517A0804E3610EEB5DD8B0EB9B29
:06293C00EBC700F01200E1
:1029420005019351020A17E1010E0201DA2508017D
:10295200016F000E0201DB210801026F000E02016D
:10296200DC210801036F000E0201DD210801046F62
:10297200F8EC0AF02ED09351000A05E1FF0E9A6F8F
:10298200FF0E006E26D0DE0E0801406F020E416F70
:10299200E3EC06F00050000A06E0FF0E05019A6F14
:1029A200FF0E006E16D0010E0201DA25006E000E37
:1029B200DB21016E000EDC21026E000EDD21036EB2
:1029C20000C0DAF201C0DBF202C0DCF203C0DDF2C9
:0429D200006A120085
:1029D600160E0701EB25FD6F000EEC21FE6F5BEC7A
:1029E6000DF00B0E046E00C002F001C003F004509F
:1029F60005E003320232039EFF0FFAD71F0E0214C0
:102A0600006E00C0D3F2160EEB25FD6F000EEC2112
:102A1600FE6F5BEC0DF0050E046E00C002F001C007
:102A260003F0045005E003320232039EFF0FFAD78B
:102A36003F0E0214006E00C0D4F2160EEB25FD6F99
:102A4600000EEC21FE6F5BEC0DF000C002F00236CA
:102A560002903F0E0214006E00C0D5F2180EEB2550
:102A6600FD6F000EEC21FE6F5BEC0DF0090E046E9F
:102A760000C002F001C003F0045005E00332023248
:102A8600039EFF0FFAD77F0E0214006E03C001F0FB
:102A9600000E011600C0CFF201C0D0F2BC0E002617
:102AA600070E012200C0CFF201C0D0F2180EEB25AE
:102AB600FD6F000EEC21FE6F5BEC0DF0050E046E53
:102AC60000C002F001C003F0045005E003320232F8
:102AD600039EFF0FFAD70F0E0214006E00C0D1F24C
:102AE600180EEB25FD6F000EEC21FE6F5BEC0DF072
:0E2AF6001F0E0014006E00C0D2F2006A120023
:102B0400050E0101146F9494D9EC01F00701CA6B0E
:102B1400CB6B000ECB5D02E10A0ECA5D10E2A3C5C9
:102B2400E1FFA4C5E2FFFF0EE66EA1C500F0A2C559
:102B340001F02DEC00F00701CA4BCB2BEAD7C6EC11
:102B440002F00801866B876B886B896B8A6B950E24
:102B54008B6F5DEC02F000C0CCF7D9EC01F00701FB
:102B6400CC51010A03E0010E006E85D0C6EC02F0E0
:102B7400080E0801866FAA0E876F010E886F000E7B
:102B8400896F8A6F870E8B6F5DEC02F000C0CCF703
:102B9400A3C5E1FFA4C5E2FFFF0EE66EA1C500F0E8
:102BA400A2C501F02DEC00F0A3C5E1FFA4C5E2FF2E
:102BB400FF0EE66EA1C500F0A2C501F02DEC00F0F9
:102BC400A3C5E1FFA4C5E2FFFF0EE66EA1C500F0B8
:102BD400A2C501F02DEC00F0A3C5E1FFA4C5E2FFFE
:102BE400FF0EE66EA1C500F0A2C501F02DEC00F0C9
:102BF400D9EC01F00701CC51010A0BE0010EEB6F97
:102C040074EC10F0005204E00701EB6B74EC10F06C
:102C140005D0020E0701EB6F74EC10F0000E000AF1
:102C240003E1050E0101141903E1020E006E23D025
:102C3400000E000A03E10101040E14191BE0C6ECA6
:102C440002F0100E0801866F000E876F020E886F67
:102C5400000E896F8A6FFF0E8B6F5DEC02F000C06F
:102C6400CCF7D9EC01F00701CC51000A03E0030EC4
:082C7400006E01D0006A12009D
:102C7C000201D951FF0A08E1D851FF0A05E1D751E9
:102C8C00FF0A02E1D651FF0A06E1F60E05019A6F22
:102C9C00FF0E006E87D20501DEC4CCF7DFC4CDF782
:102CAC00E0C4CEF7E1C4CFF76B510401E15D0EE156
:102CBC0005016A510401E05D09E105016951040156
:102CCC00DF5D04E1050168510401DE5D15E30501DA
:102CDC004D510701CF5D0EE105014C510701CE5D51
:102CEC0009E105014B510701CD5D04E105014A5194
:102CFC000701CC5D01E206D0F40E05019A6FFF0EC0
:102D0C00006E50D20701D66B83C500F0D6C201F01D
:102D1C00D7C202F0D8C203F0D9C204F0005007E0C9
:102D2C000432033202320132049EFF0FF8D70450F2
:102D3C00000809E10350000806E10250000803E115
:102D4C0007010150D65D56E2CCC76AF8CDC76BF8C7
:102D5C00CEC76CF8CFC76DF8EDEC03F000C0CCF724
:102D6C0001C0CDF702C0CEF703C0CFF703500F0A56
:102D7C0008E10250FF0A05E10150FF0A02E1005090
:102D8C00FF0A06E1F10E05019A6FFF0E006E0AD2E2
:102D9C0005016B510701CF5D0EE105016A51070179
:102DAC00CE5D09E1050169510701CD5D04E1050125
:102DBC0068510701CC5D15E305014D510701CF5D4D
:102DCC000EE105014C510701CE5D09E105014B51A6
:102DDC000701CD5D04E105014A510701CC5D01E21B
:102DEC0006D0F40E05019A6FFF0E006EDBD10701C1
:102DFC00D62B8AD79BC500F09CC501F09DC502F06F
:102E0C009EC503F0010E005E000E015A025A035AD1
:102E1C0000500201D6150701D26F01500201D715DF
:102E2C000701D36F02500201D8150701D46F03506C
:102E3C000201D9150701D56FCCC76AF8CDC76BF85D
:102E4C00CEC76CF8CFC76DF8C1EC04F0A0C508F084
:102E5C00D2C704F0D3C705F0D4C706F0D5C707F026
:102E6C00085007E00732063205320432079EFF0F86
:102E7C00F8D7045000240801016F05500120026F9F
:102E8C0006500220036F07500320046F95C500F015
:102E9C0096C501F097C502F098C503F0010E005ECF
:102EAC00000E015A025A035A00500701D215046E43
:102EBC000150D315056E0250D415066E0350D5156E
:102ECC00076E050E026E04C000F005C001F0025042
:102EDC0005E0003600900136FF0FFAD70701DE0E31
:102EEC000024D06F020E0120D16FF8EC0AF00050D4
:102EFC00000A03E0FF0E006E55D1D0C7E9FFD1C721
:102F0C00EAFFEECF01F00150E50A0AE0D0C7E9FF75
:102F1C00D1C7EAFFEECF01F0200E015C01E318D01F
:102F2C00D0C7E9FFD1C7EAFFEECF01F0140E015C68
:102F3C000EE20B0E0701D025E96E000ED121EA6ED0
:102F4C003F0EEE14016E01500F0A01E101D099D031
:102F5C006BEC03F00050000A03E0FF0E006E22D170
:102F6C000B0E0701D025E96E000ED121EA6EEECFD3
:102F7C0001F001A631D0CAC701F8CBC702F808018D
:102F8C00036B100E046F010E056F19EC0DF0FF0EA4
:102F9C000701CA25D76F000ECB21D86F0B0ED02599
:102FAC00FD6F000ED121FE6F54EC0DF0D7C7E1FF81
:102FBC00D8C7E2FF00C0E6FFCAC753F8CBC754F826
:102FCC00D0C755F8D1C756F80B0E0801576F000E35
:102FDC00586F06EC05F04BD00701CA51CB1147E0F6
:102FEC00D0C7EBF7D1C7ECF7CAC7EDF7CBC7EEF7F5
:102FFC00DEC4EFF7DFC4F0F7E0C4F1F7E1C4F2F799
:10300C00D6C2F3F7D7C2F4F7D8C2F5F7D9C2F6F7A0
:10301C00CAEC13F00050000A03E0FF0E006EC2D0A1
:10302C00D0C7EBF7D1C7ECF76CEC0FF0D0C7EBF7D0
:10303C00D1C7ECF7CADC080ECA25E16E010ECB2114
:10304C00E26EDEC4E6FFDFC4E6FFE0C4E6FFE1C4E7
:10305C00E6FF0C0ECA25E16E010ECB21E26ED6C244
:10306C00E6FFD7C2E6FFD8C2E6FFD9C2E6FF010EE3
:10307C000201D627000ED723D823D923010E006EC8
:10308C0091D0010E0701D227000ED323D423D523D0
:10309C00200ED025016E000ED121026E01C0D0F79A
:1030AC0002C0D1F7010E0201D627000ED723D82378
:1030BC00D9230250CE1902E1CD510118D8A471D0F8
:1030CC00DE0E0701D06F020ED16FD55105019E198E
:1030DC000EE10701D45105019D1909E10701D351F6
:1030EC0005019C1904E10701D25105019B1951E11D
:1030FC006BEC03F00050000A03E0FF0E006E52D0A0
:10310C000701D26BD36BD46BD56BCCC76AF8CDC728
:10311C006BF8CEC76CF8CFC76DF8EDEC03F000C0C0
:10312C00CCF701C0CDF702C0CEF703C0CFF70350E8
:10313C000F0A08E10250FF0A05E10150FF0A02E103
:10314C000050FF0A0BE1FF0E0201D66FFF0ED76F86
:10315C00FF0ED86FFF0ED96F006A24D0CCC76AF867
:10316C00CDC76BF8CEC76CF8CFC76DF8C1EC04F0C7
:10317C0000C001F801C002F802C003F803C004F853
:10318C00F8EC0AF00050000A03E0FF0E006E0AD0C3
:10319C0008D0A1EC14F00050000A03E0FF0E006E02
:0631AC0001D0ABD61200B9
:1031B20034EC11F0DE0E0701CB6F020ECC6F05016D
:1031C2009A51FF0A03E1FF0E006E6BD29A51FC0A7C
:1031D20003E1FF0E006E65D29A51000A65E10F0EFF
:1031E2004F15016E01C0CDF701500B0A0AE007012D
:1031F200CD510C0A06E0F80E05019A6FFF0E006E23
:1032020050D250C56EF851C56FF852C570F853C50B
:1032120071F883EC03F00050000A03E0FF0E006E29
:1032220040D2DE0E0701CB6F020ECC6FFE0ECB2515
:10323200FD6F010ECC21FE6F5BEC0DF00150AA0A6E
:1032420002E1550E001806E0FC0E05019A6FFF0E12
:10325200006E27D2CBC7E9FFCCC7EAFFEECF01F061
:103262000150E90A16E0CBC7E9FFCCC7EAFFEECF6F
:1032720001F00150EB0A0BE1020E0701CB25E96ECA
:10328200000ECC21EA6EEE50900A01E102D0006AF3
:1032920002D0010E006E005206E1FB0E05019A6F8C
:1032A200FF0E006EFED11DD005019A51FB0A19E1F5
:1032B200800E4E6F506B516B526B536B200E070199
:1032C200CB25FD6F000ECC21FE6F6BEC0AF000C027
:1032D20054F501C055F502C056F503C057F5050176
:1032E2009A6B05019A51000AD8A4D6D10B0E070198
:1032F200CB25FD6F000ECC21FE6F5BEC0DF000C004
:1033020058F501C059F50D0ECB25FD6F000ECC21ED
:10331200FE6F54EC0DF000C05AF50E0ECB25FD6F7A
:10332200000ECC21FE6F5BEC0DF000C05BF501C01E
:103332005CF5100ECB25FD6F000ECC21FE6F54EC18
:103342000DF000C05DF5240ECB25FD6F000ECC21E3
:10335200FE6F6BEC0AF000C05EF501C05FF502C0C3
:1033620060F503C061F5280ECB25FD6F000ECC2160
:10337200FE6F5BEC0DF000C062F501C063F5050164
:103382005B515025006E5C515121016E000E52219D
:10339200026E000E5321036E00C064F501C065F594
:1033A20002C066F503C067F52C0E0701CB25FD6F41
:1033B200000ECC21FE6F6BEC0AF000C068F501C074
:1033C20069F502C06AF503C06BF5110ECB25FD6FDE
:1033D200000ECC21FE6F5BEC0DF000C06CF501C05D
:1033E2006DF5300ECB25FD6F000ECC21FE6F5BEC30
:1033F2000DF0000E026E036E050150510026515170
:103402000122525102225351032200C072F501C01F
:1034120073F502C074F503C075F564C56EF565C534
:103422006FF566C570F567C571F50701CA6B0501D1
:103432005D510701CA5D18E205015E516E25006EFD
:103442005F516F21016E60517021026E61517121D5
:10345200036E00C06EF501C06FF502C070F503C0C7
:1034620071F50701CA2BE3D7050E006E58C595F515
:1034720059C596F5000E0501976F986F005005E04B
:1034820096339533969FFF0FFAD7000E976F986F7A
:1034920058C5D7F559C5D8F5000ED96FDA6FD833AC
:1034A200D733D89FD833D733D89F000ED96FDA6F6E
:1034B20058C5EBF759C5ECF7000E0701ED6FEE6F3B
:1034C2003EEC10F000C084F55AC5EBF7000E070180
:1034D200EC6FED6FEE6F3EEC10F000C0E8F595C5B5
:1034E200EBF796C5ECF797C5EDF798C5EEF73EEC0E
:1034F20010F000C0A0F5D7C5EBF7D8C5ECF7D9C5D9
:10350200EDF7DAC5EEF73EEC10F000C0DBF5050191
:10351200E8518425006E00C094F5010E7E6F000E06
:103522007F6F000E806F000E816F005007E07E37C4
:103532007E917F3780378137FF0FF8D7200E070142
:10354200EB6F000EEC6FED6FEE6F3EEC10F0005083
:103552000501945D006E016A000E00BEFF0E015A65
:1035620000C004F0010E006E000E016E000E026E2D
:10357200000E036E045007E000360090013602365A
:103582000336FF0FF8D700C09BF501C09CF502C0BF
:103592009DF503C09EF500C0EBF701C0ECF702C039
:1035A200EDF703C0EEF73EEC10F000C083F568C5FE
:1035B200DEF469C5DFF46AC5E0F46BC5E1F402012B
:1035C200D66BD76BD86BD96B6EC500F06FC501F0A7
:1035D20070C502F071C503F005015051005E5151F2
:1035E200015A5251025A5351035A54C54AF555C50C
:1035F2004BF556C54CF557C54DF500504A5F015085
:103602004B5B02504C5B03504D5BE8C500F0005031
:1036120007E04D334C334B334A334D9FFF0FF8D7FE
:10362200020E4A27000E4B234C234D234F5320E119
:10363200000E4D5D08E1000E4C5D05E1FF0E4B5D95
:1036420002E1F70E4A5D03E30B0E4F6F11D0000E3D
:103652004D5D08E1000E4C5D05E10F0E4B5D02E190
:10366200F70E4A5D03E3060E4F6F02D0010E4F6F55
:103672000F0E4F15016E01C0CDF701500B0A0AE083
:103682000701CD510C0A06E0F80E05019A6FFF0EF4
:10369200006E07D0006A05D00501FB0E9A6FFF0E7F
:0436A200006E1200A4
:1036A6001A0E0701CA25E16E000ECB21E26ECCC7C9
:1036B600E6FF1A0ECA25006E000ECB21016E010E22
:1036C6000024E16E000E0120E26ECDC7E6FF140E67
:1036D600CA25E16E000ECB21E26ECEC7E6FF140EC0
:1036E600CA25006E000ECB21016E010E0024E16E8C
:0E36F600000E0120E26ECFC7E6FF006A120050
:103704000E0E0701CA25006E000ECB21016E010EBC
:103714000024E16E000E0120E26E89C500F000363F
:103724000090003600900036009000C0E6FF0E0EB8
:10373400CA25006E000ECB21016E010E0024026E1C
:10374400000E0120036E8AC500F00032009E003294
:10375400009E0032009E02C0E9FF03C0EAFFEE5063
:10376400002602C0E1FF03C0E2FF00C0E6FF0E0E28
:10377400CA25E16E000ECB21E26E050E016E8AC5EC
:1037840000F0015004E000360090FF0FFBD700C0AA
:10379400E6FF0E0ECA25026E000ECB21036E8BC50A
:1037A40000F00032009E02C0E9FF03C0EAFFEE50C1
:1037B400002602C0E1FF03C0E2FF00C0E6FF100ED6
:1037C400CA25006E000ECB21016E010E0024E16EAD
:1037D400000E0120E26EBC0E0501855D026E02C082
:1037E40000F00036009000C0E6FF100E0701CA2565
:1037F400006E000ECB21016E010E0024026E000E3D
:103804000120036E87C500F00032009E0032009E46
:103814000032009E02C0E9FF03C0EAFFEE5000261A
:1038240002C0E1FF03C0E2FF00C0E6FF100ECA259C
:10383400E16E000ECB21E26E050E016E87C500F02D
:10384400015004E000360090FF0FFBD700C0E6FFF4
:10385400100ECA25016E000ECB21026E01C0E9FFD5
:1038640002C0EAFF05018851EE24006E01C0E1FFA9
:0C38740002C0E2FF00C0E6FF006A120084
:103880007AC5CAF77BC5CBF77CC5CCF77DC5CDF72C
:1038900005016B517D5D08E16A517C5D05E169516F
:1038A0007B5D02E168517A5D14E34D510701CD5D06
:1038B0000EE105014C510701CC5D09E105014B51B9
:1038C0000701CB5D04E105014A510701CA5D01E230
:1038D00008D068C5CAF769C5CBF76AC5CCF76BC510
:1038E000CDF7CAC7CEF7CBC7CFF7CCC7D0F7CDC778
:1038F000D1F7DBC504F0CAC700F0CBC701F0CCC7D5
:1039000002F0CDC703F0045007E003320232013267
:103910000032039EFF0FF8D700500501642508010F
:10392000016F0150050165210801026F0250050178
:1039300066210801036F0350050167210801046F28
:10394000D7C500F0D8C501F0D9C502F0DAC503F03B
:10395000010E005E000E015A025A035A0050070180
:10396000CA15046E0150CB15056E0250CC15066EBB
:103970000350CD15076E04C000F005C001F00036FD
:1039800000900136003600900136DE0E0024D26F22
:10399000020E0120D36FF8EC0AF00050000A09E093
:1039A000FF0E006EFF0E016EFF0E026E0F0E036E15
:1039B0006ED10701D46BD2C7E9FFD3C7EAFFEECFC0
:1039C00001F0EECF02F0EECF03F0EECF04F00450A2
:1039D000000A08E10350000A05E10250000A02E172
:1039E0000150000A04E10701010ED46FC2D00701A3
:1039F000040ED227000ED323010ECA27000ECB23BC
:103A0000CC23CD2305014D510701CD5D0EE105010C
:103A10004C510701CC5D09E105014B510701CB5D1C
:103A200004E105014A510701CA5DD8A077D068C5F5
:103A3000CAF769C5CBF76AC5CCF76BC5CDF76BEC98
:103A400003F00050000A09E0FF0E006EFF0E016E49
:103A5000FF0E026E0F0E036E1AD1DBC504F0CAC74B
:103A600000F0CBC701F0CCC702F0CDC703F0045083
:103A700007E00332023201320032039EFF0FF8D713
:103A80000501005064250801016F01500501652101
:103A90000801026F0250050166210801036F0350FF
:103AA000050167210801046FD7C500F0D8C501F0F2
:103AB000D9C502F0DAC503F0010E005E000E015A0E
:103AC000025A035A00500701CA15046E0150CB1563
:103AD000056E0250CC15066E0350CD15076E04C05E
:103AE00000F005C001F0003600900136003600906D
:103AF0000136DE0E0024D26F020E0120D36FF8ECE7
:103B00000AF00050000A09E0FF0E006EFF0E016E81
:103B1000FF0E026E0F0E036EBAD01CD00701D351F8
:103B20000201CE1903E1CD510701D21913E10701BA
:103B3000DE0ED26F020ED36FA1EC14F00050000A1B
:103B400009E0FF0E006EFF0E016EFF0E026E0F0EFB
:103B5000036E9DD00701CD51D11908E1CC51D01988
:103B600005E1CB51CF1902E1CA51CE1901E101D0D3
:103B700022D76BEC03F00050000A09E0FF0E006E44
:103B8000FF0E016EFF0E026E0F0E036E80D0070156
:103B9000D45309E1FF0E006EFF0E016EFF0E026EA0
:103BA0000F0E036E74D0D2C7E1FFD3C7E2FFFF0E42
:103BB000E66EFF0EE66EFF0EE66E0F0EE66EDBC5DE
:103BC00004F0CAC700F0CBC701F0CCC702F0CDC7E4
:103BD00003F0045007E00332023201320032039E48
:103BE000FF0FF8D70050050164250701EB6F015066
:103BF000050165210701EC6F0250050166210701EF
:103C0000ED6F0350050167210701EE6FFDEC0FF02A
:103C10000050000A07E0FF0E006EFF0E016E026EFC
:103C2000036E35D005017951FF0A08E17851FF0A8A
:103C300005E17751FF0A02E17651FF0A16E076C5E9
:103C400000F077C501F078C502F079C503F0010EE8
:103C5000005E000E015A025A035A00C076F501C0F8
:103C600077F502C078F503C079F5CAC77AF5CBC7F6
:103C70007BF5CCC77CF5CDC77DF5010E826FCAC739
:103C800000F0CBC701F0CCC702F0CDC703F01200A3
:103C9000DBC504F0CEC700F0CFC701F0D0C702F0FB
:103CA000D1C703F0045007E0033202320132003280
:103CB000039EFF0FF8D700C0D3F701C0D4F702C0AE
:103CC000D5F703C0D6F7050164510024086E65518D
:103CD0000120096E665102200A6E675103200B6EA7
:103CE00008C0D3F709C0D4F70AC0D5F70BC0D6F780
:103CF000D7C500F0D8C501F0D9C502F0DAC503F088
:103D0000010E005E000E015A025A035A00500701CC
:103D1000CE15046E0150CF15056E0250D015066EFB
:103D20000350D115076E04C000F005C001F0003645
:103D300000900136003600900136DE0E0024DB6F65
:103D4000020E0120DC6F08C06EF809C06FF80AC0CF
:103D500070F80BC071F883EC03F00050000A03E028
:103D6000FF0E006E46D0DBC7E1FFDCC7E2FFCAC72B
:103D7000E6FFCBC7E6FFCCC7E6FFCDC7E6FFD3C75C
:103D8000D7F7D4C7D8F7D5C7D9F7D6C7DAF7070119
:103D9000D26B05015D510701D25D22E2D7C7EBF777
:103DA000D8C7ECF7D9C7EDF7DAC7EEF7FDEC0FF09F
:103DB0000050000A03E0FF0E006E1BD005015E51AB
:103DC0000701D72705015F510701D823050160517D
:103DD0000701D923050161510701DA23D22BD9D775
:103DE000D3C7DAF2D4C7DBF2D5C7DCF2D6C7DDF22F
:043DF000006A120053
:103DF4000501CE6BCF6BA56BA66BCCC700F0CDC70E
:103E040001F0CEC702F0010E0701CC27000ECD232E
:103E1400CE2300C0F6FF01C0F7FF02C0F8FF09007F
:103E2400F5CF00F000C0D0F50052D8B42EEF24F046
:103E34000501D051250A0DE0CAC7E1FFCBC7E2FF57
:103E4400D0C5E6FF0701CA4BCB2B0501CE4BCF2BC8
:103E5400D4D7CC6BCD6BA56BA66BCCC7EBF7CDC71A
:103E6400ECF7CEC7EDF7F2EC0EF000C0CCF701C0D2
:103E7400CDF702C0CEF700C0F6FF01C0F7FF02C0C5
:103E8400F8FF0900F5CF00F0000E016E00C0EBF75B
:103E940080EC0DF0005239E00501CC6BCD6B0501CF
:103EA400CCC500F0CDC501F00A0E046E000E056EFF
:103EB40000EC07F0CCC7F6FFCDC7F7FFCEC7F8FF7D
:103EC4000900F5CF02F002500024CC6F000E01204F
:103ED400CD6F300ECC5F000ECD5B010E0701CC27F9
:103EE400000ECD23CE23CCC7F6FFCDC7F7FFCEC738
:103EF400F8FF0900F5CF00F0000E016E00C0EBF7EB
:103F040080EC0DF00052CBE133D0CCC7F6FFCDC727
:103F1400F7FFCEC7F8FF0900F5CF01F001502A0AD8
:103F240027E1CFC7E9FFD0C7EAFFEECF00F0EECF1D
:103F340001F000C0E9FF01C0EAFFEECFCCF5EECFFF
:103F4400CDF5CFC7E9FFD0C7EAFF020EEE24006E1D
:103F5400000EEE20016ECFC7E1FFD0C7E2FF00C024
:103F6400E6FF01C0E6FF010ECC27000ECD23CE23D1
:103F7400CCC7F6FFCDC7F7FFCEC7F8FF0900F5CFD2
:103F840001F001502E0A74E10701010ECC27000E46
:103F9400CD23CE23CCC7F6FFCDC7F7FFCEC7F8FF9E
:103FA4000900F5CF01F001502A0A28E1CFC7E9FF43
:103FB400D0C7EAFFEECF00F0EECF01F000C0E9FF7A
:103FC40001C0EAFFEECFD1F5EECFD2F5CFC7E9FFBE
:103FD400D0C7EAFF020EEE24006E000EEE20016E42
:103FE400CFC7E1FFD0C7E2FF00C0E6FF01C0E6FF94
:103FF400010ECC27000ECD23CE2339D00501D16B81
:10400400D26BCCC7F6FFCDC7F7FFCEC7F8FF0900C8
:10401400F5CF00F0000E016E00C0EBF780EC0DF060
:10402400005225E0D1C500F0D2C501F00A0E046E9D
:10403400000E056E00EC07F0CCC7F6FFCDC7F7FF06
:10404400CEC7F8FF0900F5CF02F0025000240501A5
:10405400D16F000E0120D26F300ED15F000ED25B03
:10406400010E0701CC27000ECD23CE23CAD703D0DF
:104074000501D16BD26BCCC700F0CDC701F0CEC720
:1040840002F0010E0701CC27000ECD23CE2300C081
:10409400F6FF01C0F7FF02C0F8FF0900F5CFD0F525
:1040A40006D1CEC500F0CFC501F0DAD30501A58D48
:1040B4002ED12DD1A58BA58F2AD1CFC7E9FFD0C78B
:1040C400EAFFEECF00F0EECF01F000C0E9FF01C03F
:1040D400EAFFEECFD1F7EECFD2F7CFC7E9FFD0C7D3
:1040E400EAFF020EEE24006E000EEE20016ECFC732
:1040F400E1FFD0C7E2FF00C0E6FF01C0E6FF000E0B
:104104000701D21902E1000ED11904E1150ED16F95
:10411400010ED26FD36BD46BD351D125E96ED45138
:10412400D221EA6EEE520BE0010ED325006E000E92
:10413400D421016E00C0D3F701C0D4F7EDD7050137
:10414400D151D2110EE00701D4510501D25D04E131
:104154000701D3510501D15D04E2D1C5D3F7D2C51E
:10416400D4F7CD510701D45D04E10501CC51070119
:10417400D35D08E2D3510501CC5F0701D451050199
:10418400CD5B03D00501CC6BCD6BA5B718D0CCC5E6
:1041940000F0CDC501F0010ECC5F000ECD5B0050E8
:1041A40001100DE0CAC7E1FFCBC7E2FF200EE66EA7
:1041B4000701CA4BCB2B0501CE4BCF2BE8D7D3C776
:1041C40002F0D4C703F0010E0701D35D006E000EA8
:1041D400D459016E00C0D3F701C0D4F702500310C4
:1041E4001AE0D1C7E9FFD2C7EAFFCAC7E1FFCBC7CC
:1041F400E2FFEECFE6FFCA4BCB2B010ED125006EBA
:10420400000ED221016E00C0D1F701C0D2F7050122
:10421400CE4BCF2BD4D70501A5A718D0CCC500F021
:10422400CDC501F0010ECC5F000ECD5B0050011036
:104234000DE0CAC7E1FFCBC7E2FF200EE66E07011F
:10424400CA4BCB2B0501CE4BCF2BE8D7D6D5CFC746
:10425400E9FFD0C7EAFFEECF00F0EECF01F000C0D7
:10426400E9FF01C0EAFFEECFD0F5CFC7E9FFD0C721
:10427400EAFF020EEE24006E000EEE20016ECFC7A0
:10428400E1FFD0C7E2FF00C0E6FF01C0E6FFD00EA9
:104294000701D16F050ED26F010ED36F000ED46FDC
:1042A4004ED7C00E0501A513000EA61330D005018C
:1042B400D051000AD8B4F5D6D0516C0AD8B4F6D689
:1042C400D0514C0AD8B4F2D6D0516F0AD8B4EED635
:1042D400D051640AD8B4EDD6D051690AD8B4E9D61D
:1042E400D051700AD8B4E6D6D051580AD8B4E2D620
:1042F400D051780AD8B4DFD6D051730AD8B4DDD6F9
:10430400D051630AA4E0D051750ACBE0C0D7C00EE7
:10431400A515016EA6C502F0000E0216000E0218C5
:1043240002E1000E01183EE1CFC7E9FFD0C7EAFF62
:10433400EECF00F0EECF01F000C0E9FF01C0EAFFCC
:10434400EECFD1F7EECFD2F7CFC7E9FFD0C7EAFF60
:10435400020EEE24006E000EEE20016ECFC7E1FFC8
:10436400D0C7E2FF00C0E6FF01C0E6FF800E0701F0
:10437400D219006E800E005C02E1000ED15D11E2E4
:10438400030E0501A513000EA6130701D151000861
:10439400006ED2C701F0000E015600C0D1F701C073
:1043A400D2F722D0CFC7E9FFD0C7EAFFEECF00F0A3
:1043B400EECF01F000C0E9FF01C0EAFFEECFD1F774
:1043C400EECFD2F7CFC7E9FFD0C7EAFF020EEE2443
:1043D400006E000EEE20016ECFC7E1FFD0C7E2FFF2
:1043E40000C0E6FF01C0E6FF000E0501D21902E19C
:1043F400000ED1190AE1000E0701D21902E1000EE4
:10440400D11903E10501D14BD22B0501C00EA5152D
:10441400006E00C005F084D00501010ED06FD051AC
:10442400050A25E0D0C500F0000E016E026E036E91
:1044340000360090013602360336810E0024F66EF3
:10444400990E0120F76E000E0220F86E0900F5CFD8
:1044540001F00900F5CF02F002500701D25D02E13C
:104464000150D15D01E203D00501D02BD8D766D02D
:104474000501010ED06FD051040A25E0D0C500F02B
:10448400000E016E026E036E003600900136023695
:1044940003369D0E0024F66E990E0120F76E000E71
:1044A4000220F86E0900F5CF01F00900F5CF02F003
:1044B40002500701D25D02E10150D15D01E203D057
:1044C4000501D02BD8D73AD00501010ED06FD051B9
:1044D400060A25E0D0C500F0000E016E026E036EE0
:1044E40000360090013602360336750E0024F66E4F
:1044F400990E0120F76E000E0220F86E0900F5CF28
:1045040001F00900F5CF02F002500701D25D02E18B
:104514000150D15D01E203D00501D02BD8D70ED0D4
:104524000550000AD8B478D70550C00AD8B474D757
:104534000550800A9DE00550400AC6E00501800E42
:10454400006E800ED219005C02E1D151D05D03E20D
:10455400D1C5D0F50DD0800ED219006E800E005C4E
:1045640002E1D051D15D04E2D0C5D1F5000ED26F85
:10457400CC51CD110EE0030EA515006EA6C501F0B9
:10458400000E01160050011004E0010ECC5F000E75
:10459400CD5B800ED219006E800ECD19005C02E155
:1045A400CC51D15D05E2D151CC5FD251CD5B02D06B
:1045B400CC6BCD6BC40EA515016EA651080B026E13
:1045C4000250080A02E1400E011808E1CC51CD1155
:1045D40004E0010ECC5F000ECD5B1CD0C00EA5150F
:1045E400016EA651080B026E0250080A02E1800E09
:1045F400011810E1800E006E800ECD19005C02E1FE
:10460400CC51020805E2020ECC5F000ECD5B02D055
:10461400CC6BCD6BCAC7EBF7CBC7ECF78CEC0DF0CA
:1046240000C0CAF701C0CBF7D1C500F0D2C501F074
:10463400010ED15F000ED25B00500110D8B4ECD053
:10464400C00EA515006E00C0D5F7C9D00501D1C5AF
:1046540000F0D2C501F0000ED2BFFF0E026E036E51
:1046640000360090013602360336810E0024F66EC1
:10467400990E0120F76E000E0220F86E0900F5CFA6
:1046840004F00900F5CF05F0D1C700F0D2C701F05E
:104694007BEC14F00A0E046E000E056E7BEC14F035
:1046A40008C000F009C001F0300E0024D06FA7D07C
:1046B4000501A5AB35D0D1C500F0D2C501F0000E7F
:1046C400D2BFFF0E026E036E003600900136023632
:1046D40003369D0E0024F66E990E0120F76E000E2F
:1046E4000220F86E0900F5CF04F00900F5CF05F0BB
:1046F400D1C700F0D2C701F07BEC14F00F0E001606
:10470400000E01161B0E0024F66E990E0120F76EA2
:10471400000EF86E000EF8220900F5CFD0F534D063
:10472400D1C500F0D2C501F0000ED2BFFF0E026E5B
:10473400036E003600900136023603369D0E0024C7
:10474400F66E990E0120F76E000E0220F86E090035
:10475400F5CF04F00900F5CF05F0D1C700F0D2C7BA
:1047640001F07BEC14F00F0E0016000E01160A0E79
:104774000024F66E990E0120F76E000EF86E000EFE
:10478400F8220900F5CFD0F53AD00501D1C500F0E3
:10479400D2C501F0000ED2BFFF0E026E036E0036CA
:1047A4000090013602360336750E0024F66E990E1B
:1047B4000120F76E000E0220F86E0900F5CF04F018
:1047C4000900F5CF05F0D1C700F0D2C701F07BECAA
:1047D40014F0070E0014D06F300ED02710D007014C
:1047E400D551000AD8B432D7D551C00AD8B42ED77F
:1047F400D551800AD8B45CD7D551400AC6E0070128
:10480400CAC7E1FFCBC7E2FFD0C5E6FFCA4BCB2B3B
:104814000501CE4BCF2B08D7A5A71CD0800E006E68
:10482400800ECD19005C02E1CC51000813E2CAC726
:10483400E1FFCBC7E2FF200EE66E0701CA4BCB2B8C
:104844000501CE4BCF2B010ECC5F000ECD5BCC51BE
:10485400CD11EDE1FFEF1EF0CEC500F0CFC501F0A4
:02486400120040
:1048660010D0800E0701CA6F1AD0C00ECA6F17D0BB
:10487600940ECA6F14D0D40ECA6F11D0800ECA6FB0
:104886000ED00701CA51010AECE0CA51020AEDE056
:10489600CA51030AEDE0CA51040AEDE0EFD7CB0591
:1048A600006ECA51002600C0CAF700C0FDF714EC1E
:1048B6000AF0AB910701CE6BCE51CC25E96E000E06
:1048C600CD21EA6EEE520DE0CE51CC25E96E000EFA
:1048D600CD21EA6EEECFEBF7BDEC0EF00701CE2B45
:0848E600EBD70501AB811200C4
:1048EE00160E0701CA25006E000ECB21016E010EB9
:1048FE000024E16E000E0120E26E89C500F0003644
:10490E000090003600900036009000C0E6FF160EB4
:10491E00CA25006E000ECB21016E010E0024026E20
:10492E00000E0120036E8AC500F00032009E003298
:10493E00009E0032009E02C0E9FF03C0EAFFEE5067
:10494E00002602C0E1FF03C0E2FF00C0E6FF160E24
:10495E00CA25E16E000ECB21E26E050E016E8AC5F0
:10496E0000F0015004E000360090FF0FFBD700C0AE
:10497E00E6FF160ECA25026E000ECB21036E8BC506
:10498E0000F00032009E02C0E9FF03C0EAFFEE50C5
:10499E00002602C0E1FF03C0E2FF00C0E6FF180ED2
:1049AE00CA25006E000ECB21016E010E0024E16EB1
:1049BE00000E0120E26EBC0E0501855D026E02C086
:1049CE0000F00036009000C0E6FF180E0701CA2561
:1049DE00006E000ECB21016E010E0024026E000E41
:1049EE000120036E87C500F00032009E0032009E4B
:1049FE000032009E02C0E9FF03C0EAFFEE5000261F
:104A0E0002C0E1FF03C0E2FF00C0E6FF180ECA2598
:104A1E00E16E000ECB21E26E050E016E87C500F031
:104A2E00015004E000360090FF0FFBD700C0E6FFF8
:104A3E00180ECA25016E000ECB21026E01C0E9FFD1
:104A4E0002C0EAFF05018851EE24006E01C0E1FFAD
:0C4A5E0002C0E2FF00C0E6FF006A120088
:104A6A006DB409D01F0E6B14016E0150000A03E1E8
:0A4A7A00010E006E01D0006A120068
:104A84000450000A12E10550000A0FE10650000A22
:104A94000CE10750000A09E1FF0E006EFF0E016EE3
:104AA400FF0E026E7F0E036E99D00C6A07BE0C2AAD
:104AB4000D6A0B6A0A6A096A086A03500210011037
:104AC4000010D8B485D0035007180E6E0EBE0D1E0C
:104AD40007AE0BD0041E051E061E071E042AD8B4FA
:104AE400052AD8B4062AD8B4072A03AE0BD0001E70
:104AF400011E021E031E002AD8B4012AD8B4022AB9
:104B0400D8B4032A035007100E6E0EBE1DD06DECF0
:104B140012F00CBE36D00DAE5BD0001E011E021E7C
:104B2400031E002AD8B4012AD8B4022AD8B4032A0E
:104B3400081E091E0A1E0B1E082AD8B4092AD8B456
:104B44000A2AD8B40B2A44D007AE15D003BE0DD020
:104B540003500B6E02500A6E0150096E0050086E2D
:104B6400036A026A016A006AD6D7036A026A016AA2
:104B7400006A002A000C031E021E011E001E0C8E79
:104B8400C6D7082AD8B4092AD8B40A2AD8B40B2A12
:104B94000450085CD8A4BFD70550095CD8A4BBD77F
:104BA40006500A5CD8A4B7D707500B5CD8A4B3D777
:104BB4000B6A0A6A096A086A002AD8B4012AD8B4B6
:104BC400022AD8B4032A03AEA6D70E6A0E88FF0CB5
:0E4BD4000E6A0CA002D06FEC14F0000F12005D
:104BE200CAC7EBF7CBC7ECF7D5EC0EF000C0CFF796
:104BF20001C0D0F7CCC7EBF7CDC7ECF7D5EC0EF080
:104C0200D051011802E10050CF1902E0006A2FD002
:104C1200CE6BCCC7EBF7CDC7ECF7D5EC0EF0800E20
:104C2200026E800E0118025C02E10050CE5D1DE2B0
:104C3200CE51CA25E96E000ECB21EA6EEECFEBF71C
:104C420096EC14F000C0CFF7CE51CC25E96E000EE1
:104C5200CD21EA6EEECFEBF796EC14F0CF510018AF
:104C620002E0006A04D0CE2BD4D7010E006E1200EF
:104C7200D6C2E2F7D7C2E3F7D8C2E4F7D9C2E5F762
:104C8200DEC440F8DFC441F8E0C442F8E1C443F8AE
:104C9200D6C244F8D7C245F8D8C246F8D9C247F8B6
:104CA200E60E0801486F070E496FDCEC09F0005070
:104CB200000A03E0FF0E006E7CD195C500F096C598
:104CC20001F097C502F098C503F0010E005E000ED8
:104CD200015A025A035A00500201D615046E0150BD
:104CE200D715056E0250D815066E0350D915076EFA
:104CF20004C0DEF705C0DFF706C0E0F707C0E1F742
:104D0200050E026E04C000F005C001F0025005E07D
:104D1200003600900136FF0FFAD7DE0E002408019C
:104D2200406F020E0120416F010E0701CD6FB2EC00
:104D320009F000C0CEF7010E0201D65F000ED75B6C
:104D4200D85BD95B000E006E0701E11908E1005043
:104D5200E01905E10050DF1902E1DE51000A2CE101
:104D62009BC5DEF79CC5DFF79DC5E0F79EC5E1F761
:104D7200010EDE5F000EDF5BE05BE15BDEC440F84C
:104D8200DFC441F8E0C442F8E1C443F8D6C244F8B3
:104D9200D7C245F8D8C246F8D9C247F8E60E08018C
:104DA200486F070E496FDCEC09F00050000A03E07F
:104DB200FF0E006EFED007D0010E0701DE5F000E6F
:104DC200DF5BE05BE15B070195C500F096C501F092
:104DD20097C502F098C503F0010E005E000E015A5D
:104DE200025A035A0050DE15046E0150DF15056E9B
:104DF2000250E015066E0350E115076E050E026EB5
:104E020004C000F005C001F0025005E00036009039
:104E12000136FF0FFAD7DE0E0026020E012200C075
:104E2200DCF701C0DDF70B0E0024E96E000E012055
:104E3200EA6E3F0EEE14016E01500F0A06E0C00E3C
:104E420005019A6FFF0E006EB4D00D0E0701DC252E
:104E5200E96E000EDD21EA6EEE50CE1906E0C10EBB
:104E620005019A6FFF0E006EA4D0DCC7E9FFDDC713
:104E7200EAFFEECF00F01F0E0014016E0150070191
:104E8200CD1906E0C20E05019A6FFF0E006E91D099
:104E9200DCC740F8DDC741F8CF0E0801426F070EAC
:104EA200436F28EC07F00701CC6BCF0EE96E070EBB
:104EB200EA6ECC51E926D8B0EA2AEECFEBF796ECAF
:104EC20014F000C0EAF7CD05006E016A000E015A27
:104ED2000D0E046E000E056E00EC07F0CC5100269C
:104EE200000E01220050CA25E96E0150CB21EA6E64
:104EF200EECFEBF796EC14F0EA5100180AE0E2C7A5
:104F0200D6F2E3C7D7F2E4C7D8F2E5C7D9F2006A0E
:104F120050D0CC2B0D0ECC5D0CE2CF0EE96E070EFD
:104F2200EA6ECC51E926D8B0EA2AEE50000A01E036
:104F3200BCD70D0ECC5D2AE2CF0EE96E070EEA6EEB
:104F4200CC51E926D8B0EA2ACD05006E016A000EDE
:104F5200015A0D0E046E000E056E00EC07F0CC51E6
:104F62000026000E01220050CA25D96E0150CB2125
:104F7200DA6EEE50DE180AE0E2C7D6F2E3C7D7F2E5
:104F8200E4C7D8F2E5C7D9F2006A13D0CD2BDCC74B
:104F9200E9FFDDC7EAFFEECF01F001ACCCD6E2C7F4
:104FA200D6F2E3C7D7F2E4C7D8F2E5C7D9F2010EC9
:044FB200006E12007B
:104FB600010E0701CE6FCF6BD06BD16BD26BD36B6B
:104FC600D46BCAC7E9FFCBC7EAFFEE50000A06E179
:104FD600C40E05019A6FFF0E006EF2D0CAC7EBF73A
:104FE600CBC7ECF7D5EC0EF000C0CDF7CC6BCAC73B
:104FF600EBF7CBC7ECF7D5EC0EF0800E026E800E09
:105006000118025C02E10050CC5D15E2CC51CA25C4
:10501600E96E000ECB21EA6EEECFEBF7C5EC0EF093
:10502600005206E1C30E05019A6FFF0E006EC8D04E
:105036000701CC2BDCD7CD05006E000ECDBFFF0ED1
:10504600016E000E015A0050CA25E96E0150CB21AF
:10505600EA6EEE502E0A02E1CD07EDD7800E000A69
:10506600006E800ECD19005C06E3E20E05019A6F14
:10507600FF0E006EA5D0CAC7EBF7CBC7ECF7D5EC91
:105086000EF0800ECDBF7F0E026E800E0118025C00
:1050960002E10050CD5D09E2CD51CA25E16E000E58
:1050A600CDBFFF0ECB21E26EE66ACC6B800E006EA2
:1050B600800ECDBF7F0E005C02E1CD51CC5D12E2C9
:1050C600CC51CA25E96E000ECB21EA6EEECFFDF774
:1050D60037EC0DF0005203E0010E006E71D00701AF
:1050E600CC2BE4D7800E0C0A006E800ECD19005C26
:1050F60003E2010E006E64D0CC6B800E006E800E53
:10510600CDBF7F0E005C02E1CD51CC5D43E2CC51B8
:10511600CA25E96E000ECB21EA6EEECF6AF887EC5F
:1051260004F0005204E0010E0701CF6F2CD00701F6
:10513600CC51CA25E96E000ECB21EA6EEECF6AF895
:10514600FAEC04F0005204E0010E0701D06F1BD008
:105156000701CC51CA25E96E000ECB21EA6EEE504E
:105166002E0A11E1D2530CE1CF5304E0D05302E0F2
:10517600010ED16F010ED26FCE6BCF6BD06B08D004
:10518600010E006E1DD0CE5302E0D32B01D0D42BDE
:10519600CC2BB3D7CF5304E0D05302E0010ED16F2E
:1051A600D351080804E3D451030801E303D0010EE8
:1051B600006E06D0D15303E0020E006E01D0006AE5
:0251C6001200D5
:1051C800DEC4CEF7DFC4CFF7E0C4D0F7E1C4D1F72F
:1051D8000201D66BD76BD86BD96B05016B510701F0
:1051E800D15D0EE105016A510701D05D09E10501B4
:1051F80069510701CF5D04E1050168510701CE5DE2
:1052080015E305014D510701D15D0EE105014C5132
:105218000701D05D09E105014B510701CF5D04E1AC
:1052280005014A510701CE5D01E206D0F40E0501E1
:105238009A6FFF0E006EF7D0DE0E0701D66F020ED2
:10524800D76FCEC76AF8CFC76BF8D0C76CF8D1C78D
:105258006DF8C1EC04F000C001F801C002F802C00A
:1052680003F803C004F8F8EC0AF00050000A03E061
:10527800FF0E006ED8D00701D26BD36BD46BD56B01
:1052880005019E510701D55D0EE105019D510701FC
:10529800D45D09E105019C510701D35D04E10501D5
:1052A8009B510701D25DD8B095D0D7510201CE19D4
:1052B80003E1CD510701D6190DE10701DE0ED66FC6
:1052C800020ED76FA1EC14F00050000A03E0FF0EA5
:1052D800006EA9D0D6C7EBF7D7C7ECF7CAC7EDF76A
:1052E800CBC7EEF70B0E0701EF6F000EF06F99ECCE
:1052F80013F0000E011802E1000E001858E16BECE3
:1053080003F00050000A03E0FF0E006E8CD0070186
:10531800CC51CD113DE0D6C7EBF7D7C7ECF7CCC7DA
:10532800EDF7CDC7EEF7DEC4EFF7DFC4F0F7E0C462
:10533800F1F7E1C4F2F7D6C2F3F7D7C2F4F7D8C24F
:10534800F5F7D9C2F6F7CAEC13F00050000A03E0EB
:10535800FF0E006E68D0080E0701CC25E16E010E25
:10536800CD21E26EDEC4E6FFDFC4E6FFE0C4E6FF5F
:10537800E1C4E6FF0C0ECC25E16E010ECD21E26EF4
:10538800D6C2E6FFD7C2E6FFD8C2E6FFD9C2E6FF1B
:10539800D6C7EBF7D7C7ECF76CEC0FF0D6C7EBF72F
:1053A800D7C7ECF7EBEC14F0010E006E3CD0070108
:1053B800200ED627000ED723010ED227000ED323A6
:1053C800D423D523010E0201D627000ED723D823D4
:1053D800D92356D76BEC03F00050000A03E0FF0E08
:1053E800006E21D0CEC76AF8CFC76BF8D0C76CF86B
:1053F800D1C76DF8EDEC03F000C0CEF701C0CFF7D0
:1054080002C0D0F703C0D1F703500F0A08E10250D9
:10541800FF0A05E10150FF0A02E10050FF0A02E11C
:08542800006A01D0DAD612007F
:10543000086A080E0C6E003408360450085ED8B0B6
:0E54400002D00826D89000360C2EF5D71200A8
:10544E000450000A08E10550000A05E1FF0E006E47
:10545E007F0E016E58D00D6A096A086A015000105D
:10546E00D8B4000C015005180A6E0ABE0D1E0B6A48
:10547E0005AE05D0041E051E042AD8B4052A01AEB9
:10548E0005D0001E011E002AD8B4012A01500510B5
:10549E000A6E0ABE10D091EC0EF00BB020D00DAEFD
:1054AE00000C001E011E002AD8B4012A081E091E77
:1054BE00082AD8B4092A000C05AE0DD001BE07D0BB
:1054CE000150096E0050086E016A006AE8D7016A41
:1054DE00006A002A000C011E001E0B2ADDD7082AC6
:1054EE00D8B4092A0450085CD8A4D9D70550095C51
:1054FE00D8A4D5D7096A086A002AD8B4012A01AE01
:08550E00CED70000FF0C1200D3
:10551600A9C700F00032009E0032009E0032009EB5
:105526000032009E0A0E0002F3CF01F00F0E0701B3
:0A553600A915006E015000261200B6
:105540000501825302E1006A65D0DE0E0701A96FF2
:10555000020EAA6FDE0E0801016F020E026F036BCE
:10556000000E046F020E056F19EC0DF0A9C7E1FFE4
:10557000AAC7E2FF520EE66E520EE66E610EE66EAE
:10558000410EE66EE40E0701A925E16E010EAA2187
:10559000E26E720EE66E720EE66E410EE66E610E01
:1055A000E66EE80EA925E16E010EAA21E26E76C52F
:1055B000E6FF77C5E6FF78C5E6FF79C5E6FFEC0EA6
:1055C000A925E16E010EAA21E26E7AC5E6FF7BC530
:1055D000E6FF7CC5E6FF7DC5E6FFFE0EA925E16E70
:1055E000010EAA21E26E550EE66EAA0EE66E72C597
:1055F000EBF773C5ECF774C5EDF775C5EEF7FDEC89
:105600000FF00050000A03E0FF0E006E03D005010A
:06561000826B006A12002B
:105616001C0E0701A925E16E000EAA21E26EABC79A
:10562600E6FF1C0EA925006E000EAA21016E010ED2
:105636000024E16E000E0120E26EACC7E6FF1C0EF0
:10564600A925006E000EAA21016E020E0024E16E4D
:10565600000E0120E26EADC7E6FF1C0EA925006E06
:10566600000EAA21016E030E0024E16E000E012039
:0A567600E26EAEC7E6FF006A120004
:1056800036C1A9F737C1AAF738C1ABF739C1ACF7B2
:105690006B826BA221D001013651371138113911BB
:1056A0001AE00701A951AA11AB11AC110DE1F7C520
:1056B000E1FFF8C5E2FF060EE66EF5C500F0F6C59F
:1056C00001F02DEC00F008D0010E0701A95F000EDB
:0A56D000AA5BAB5BAC5BDDD71200F8
:0456DA006B841200CB
:1056DE0036C1ABF737C1ACF738C1ADF739C1AEF74C
:1056EE000701A96BAA6BAA51120802E1A9518E08F3
:1056FE0009E335EC25F0005201E004D00701A94B77
:10570E00AA2BF1D70701120EAA5D02E18F0EA95D39
:10571E0003E37B0E006E27D06B806BA023D00101BC
:10572E0036513711381139111CE00701AB51AC114C
:10573E00AD11AE110FE1F7C5E1FFF8C5E2FF050EA1
:10574E00E66EF5C500F0F6C501F02DEC00F0010E89
:10575E00006E09D0010E0701AB5F000EAC5BAD5BB6
:08576E00AE5BDBD7006A1200FC
:105776000A0E046EA9C700F058DE00C0AAF707019A
:10578600AA37AA91AA37AA91AA37AA91AA37AA91A3
:105796000A0E046EA9C700F048DE08C000F0AA5140
:0457A60000261200C7
:1057AA000701A96B016A050E015C0EE281A0A92B13
:1057BA00340E0C6EF10E0D6E0D2EFED70C2EFCD78C
:1057CA0000000000012AEFD7A951020803E2010EE6
:0857DA00006E01D0006A12000C
:1057E200A9C7E9FFAAC7EAFFEE50000A06E1C40E04
:1057F20005019A6FFF0E006EB6D0DEC4ADF7DFC4AE
:10580200AEF7E0C4AFF7E1C4B0F70201D66BD76BD5
:10581200D86BD96B0701B66BABC7CAF7ACC7CBF76E
:105822003EEC16F00050010AD8A494D0FF0E0701F6
:10583200AB25E96E000EAC21EA6E3F0EEE14016E4E
:1058420001500F0A03E1010EB66FE6D7010E020105
:10585200D65F000ED75BD85BD95B0701B6533BE03E
:10586200A9C7CAF7AAC7CBF739EC26F000C0B5F72B
:105872000050FF0A03E1FF0E006E75D00701B5511B
:10588200010A28E1DEC440F8DFC441F8E0C442F86E
:10589200E1C443F8D6C244F8D7C245F8D8C246F8A4
:1058A200D9C247F8B10E0801486F070E496FDCEC08
:1058B20009F00050000A03E0FF0E006E54D0ADC79D
:1058C200DEF4AEC7DFF4AFC7E0F4B0C7E1F4010E17
:1058D200006E49D035D0ABC7CAF7ACC7CBF7A9C762
:1058E200CCF7AAC7CDF7F1EC25F00050010A28E168
:1058F200DEC440F8DFC441F8E0C442F8E1C443F832
:10590200D6C244F8D7C245F8D8C246F8D9C247F839
:10591200B10E0801486F070E496FDCEC09F0005028
:10592200000A03E0FF0E006E1ED0ADC7DEF4AEC764
:10593200DFF4AFC7E0F4B0C7E1F4010E006E13D09C
:10594200010E0201D627000ED723D823D92307013F
:10595200B66B62D7ADC7DEF4AEC7DFF4AFC7E0F413
:08596200B0C7E1F4006A120075
:10596A000701A96BAA6BD76AD7CFD6FF000E00082A
:10597A0008E1000E000805E1F40EAA5D02E1240E1A
:10598A00A95D0CE281A00AD081A208D0D7CFAAF7DC
:0E599A00A96BD650A913000EAA13E8D712006D
:1059A800AE0E0701BC6F070EBD6FA9C7CAF7AAC71D
:1059B800CBF7ABC7CCF7ACC7CDF7ADC7CEF7BC0EAE
:1059C800CF6F070ED06FFAEC1EF000C0BAF701C017
:1059D800BBF700500701A925E16E0150AA21E26E2C
:0C59E800E66ABAC700F0BBC701F012006D
:1059F400030E060101250701A96F000E060102210D
